{
  "_format": "hh-sol-artifact-1",
  "contractName": "NebulaXNFT",
  "sourceName": "contracts/NebulaXNFT.sol",
  "abi": [
    {
      "inputs": [],
      "stateMutability": "nonpayable",
      "type": "constructor"
    },
    {
      "inputs": [
        {
          "internalType": "address",
          "name": "sender",
          "type": "address"
        },
        {
          "internalType": "uint256",
          "name": "balance",
          "type": "uint256"
        },
        {
          "internalType": "uint256",
          "name": "needed",
          "type": "uint256"
        },
        {
          "internalType": "uint256",
          "name": "tokenId",
          "type": "uint256"
        }
      ],
      "name": "ERC1155InsufficientBalance",
      "type": "error"
    },
    {
      "inputs": [
        {
          "internalType": "address",
          "name": "approver",
          "type": "address"
        }
      ],
      "name": "ERC1155InvalidApprover",
      "type": "error"
    },
    {
      "inputs": [
        {
          "internalType": "uint256",
          "name": "idsLength",
          "type": "uint256"
        },
        {
          "internalType": "uint256",
          "name": "valuesLength",
          "type": "uint256"
        }
      ],
      "name": "ERC1155InvalidArrayLength",
      "type": "error"
    },
    {
      "inputs": [
        {
          "internalType": "address",
          "name": "operator",
          "type": "address"
        }
      ],
      "name": "ERC1155InvalidOperator",
      "type": "error"
    },
    {
      "inputs": [
        {
          "internalType": "address",
          "name": "receiver",
          "type": "address"
        }
      ],
      "name": "ERC1155InvalidReceiver",
      "type": "error"
    },
    {
      "inputs": [
        {
          "internalType": "address",
          "name": "sender",
          "type": "address"
        }
      ],
      "name": "ERC1155InvalidSender",
      "type": "error"
    },
    {
      "inputs": [
        {
          "internalType": "address",
          "name": "operator",
          "type": "address"
        },
        {
          "internalType": "address",
          "name": "owner",
          "type": "address"
        }
      ],
      "name": "ERC1155MissingApprovalForAll",
      "type": "error"
    },
    {
      "inputs": [
        {
          "internalType": "address",
          "name": "owner",
          "type": "address"
        }
      ],
      "name": "OwnableInvalidOwner",
      "type": "error"
    },
    {
      "inputs": [
        {
          "internalType": "address",
          "name": "account",
          "type": "address"
        }
      ],
      "name": "OwnableUnauthorizedAccount",
      "type": "error"
    },
    {
      "anonymous": false,
      "inputs": [
        {
          "indexed": true,
          "internalType": "address",
          "name": "account",
          "type": "address"
        },
        {
          "indexed": true,
          "internalType": "address",
          "name": "operator",
          "type": "address"
        },
        {
          "indexed": false,
          "internalType": "bool",
          "name": "approved",
          "type": "bool"
        }
      ],
      "name": "ApprovalForAll",
      "type": "event"
    },
    {
      "anonymous": false,
      "inputs": [
        {
          "indexed": false,
          "internalType": "uint256",
          "name": "id",
          "type": "uint256"
        },
        {
          "indexed": false,
          "internalType": "address",
          "name": "creator",
          "type": "address"
        },
        {
          "indexed": false,
          "internalType": "string",
          "name": "uri",
          "type": "string"
        }
      ],
      "name": "NFTCreated",
      "type": "event"
    },
    {
      "anonymous": false,
      "inputs": [
        {
          "indexed": true,
          "internalType": "address",
          "name": "previousOwner",
          "type": "address"
        },
        {
          "indexed": true,
          "internalType": "address",
          "name": "newOwner",
          "type": "address"
        }
      ],
      "name": "OwnershipTransferred",
      "type": "event"
    },
    {
      "anonymous": false,
      "inputs": [
        {
          "indexed": true,
          "internalType": "address",
          "name": "operator",
          "type": "address"
        },
        {
          "indexed": true,
          "internalType": "address",
          "name": "from",
          "type": "address"
        },
        {
          "indexed": true,
          "internalType": "address",
          "name": "to",
          "type": "address"
        },
        {
          "indexed": false,
          "internalType": "uint256[]",
          "name": "ids",
          "type": "uint256[]"
        },
        {
          "indexed": false,
          "internalType": "uint256[]",
          "name": "values",
          "type": "uint256[]"
        }
      ],
      "name": "TransferBatch",
      "type": "event"
    },
    {
      "anonymous": false,
      "inputs": [
        {
          "indexed": true,
          "internalType": "address",
          "name": "operator",
          "type": "address"
        },
        {
          "indexed": true,
          "internalType": "address",
          "name": "from",
          "type": "address"
        },
        {
          "indexed": true,
          "internalType": "address",
          "name": "to",
          "type": "address"
        },
        {
          "indexed": false,
          "internalType": "uint256",
          "name": "id",
          "type": "uint256"
        },
        {
          "indexed": false,
          "internalType": "uint256",
          "name": "value",
          "type": "uint256"
        }
      ],
      "name": "TransferSingle",
      "type": "event"
    },
    {
      "anonymous": false,
      "inputs": [
        {
          "indexed": false,
          "internalType": "string",
          "name": "value",
          "type": "string"
        },
        {
          "indexed": true,
          "internalType": "uint256",
          "name": "id",
          "type": "uint256"
        }
      ],
      "name": "URI",
      "type": "event"
    },
    {
      "inputs": [
        {
          "internalType": "address",
          "name": "account",
          "type": "address"
        },
        {
          "internalType": "uint256",
          "name": "id",
          "type": "uint256"
        }
      ],
      "name": "balanceOf",
      "outputs": [
        {
          "internalType": "uint256",
          "name": "",
          "type": "uint256"
        }
      ],
      "stateMutability": "view",
      "type": "function"
    },
    {
      "inputs": [
        {
          "internalType": "address[]",
          "name": "accounts",
          "type": "address[]"
        },
        {
          "internalType": "uint256[]",
          "name": "ids",
          "type": "uint256[]"
        }
      ],
      "name": "balanceOfBatch",
      "outputs": [
        {
          "internalType": "uint256[]",
          "name": "",
          "type": "uint256[]"
        }
      ],
      "stateMutability": "view",
      "type": "function"
    },
    {
      "inputs": [
        {
          "internalType": "address",
          "name": "account",
          "type": "address"
        },
        {
          "internalType": "address",
          "name": "operator",
          "type": "address"
        }
      ],
      "name": "isApprovedForAll",
      "outputs": [
        {
          "internalType": "bool",
          "name": "",
          "type": "bool"
        }
      ],
      "stateMutability": "view",
      "type": "function"
    },
    {
      "inputs": [
        {
          "internalType": "address",
          "name": "to",
          "type": "address"
        },
        {
          "internalType": "uint256",
          "name": "id",
          "type": "uint256"
        },
        {
          "internalType": "uint256",
          "name": "value",
          "type": "uint256"
        },
        {
          "internalType": "string",
          "name": "data",
          "type": "string"
        }
      ],
      "name": "mint",
      "outputs": [
        {
          "internalType": "uint256",
          "name": "",
          "type": "uint256"
        }
      ],
      "stateMutability": "nonpayable",
      "type": "function"
    },
    {
      "inputs": [
        {
          "internalType": "uint256",
          "name": "",
          "type": "uint256"
        }
      ],
      "name": "nfts",
      "outputs": [
        {
          "internalType": "uint256",
          "name": "id",
          "type": "uint256"
        },
        {
          "internalType": "string",
          "name": "uri",
          "type": "string"
        }
      ],
      "stateMutability": "view",
      "type": "function"
    },
    {
      "inputs": [],
      "name": "owner",
      "outputs": [
        {
          "internalType": "address",
          "name": "",
          "type": "address"
        }
      ],
      "stateMutability": "view",
      "type": "function"
    },
    {
      "inputs": [],
      "name": "renounceOwnership",
      "outputs": [],
      "stateMutability": "nonpayable",
      "type": "function"
    },
    {
      "inputs": [
        {
          "internalType": "address",
          "name": "from",
          "type": "address"
        },
        {
          "internalType": "address",
          "name": "to",
          "type": "address"
        },
        {
          "internalType": "uint256[]",
          "name": "ids",
          "type": "uint256[]"
        },
        {
          "internalType": "uint256[]",
          "name": "values",
          "type": "uint256[]"
        },
        {
          "internalType": "bytes",
          "name": "data",
          "type": "bytes"
        }
      ],
      "name": "safeBatchTransferFrom",
      "outputs": [],
      "stateMutability": "nonpayable",
      "type": "function"
    },
    {
      "inputs": [
        {
          "internalType": "address",
          "name": "from",
          "type": "address"
        },
        {
          "internalType": "address",
          "name": "to",
          "type": "address"
        },
        {
          "internalType": "uint256",
          "name": "id",
          "type": "uint256"
        },
        {
          "internalType": "uint256",
          "name": "value",
          "type": "uint256"
        },
        {
          "internalType": "bytes",
          "name": "data",
          "type": "bytes"
        }
      ],
      "name": "safeTransferFrom",
      "outputs": [],
      "stateMutability": "nonpayable",
      "type": "function"
    },
    {
      "inputs": [
        {
          "internalType": "address",
          "name": "operator",
          "type": "address"
        },
        {
          "internalType": "bool",
          "name": "approved",
          "type": "bool"
        }
      ],
      "name": "setApprovalForAll",
      "outputs": [],
      "stateMutability": "nonpayable",
      "type": "function"
    },
    {
      "inputs": [
        {
          "internalType": "bytes4",
          "name": "interfaceId",
          "type": "bytes4"
        }
      ],
      "name": "supportsInterface",
      "outputs": [
        {
          "internalType": "bool",
          "name": "",
          "type": "bool"
        }
      ],
      "stateMutability": "view",
      "type": "function"
    },
    {
      "inputs": [
        {
          "internalType": "address",
          "name": "newOwner",
          "type": "address"
        }
      ],
      "name": "transferOwnership",
      "outputs": [],
      "stateMutability": "nonpayable",
      "type": "function"
    },
    {
      "inputs": [
        {
          "internalType": "uint256",
          "name": "tokenId",
          "type": "uint256"
        }
      ],
      "name": "uri",
      "outputs": [
        {
          "internalType": "string",
          "name": "",
          "type": "string"
        }
      ],
      "stateMutability": "view",
      "type": "function"
    }
  ],
  "bytecode": "0x608060405234801561001057600080fd5b503360405180602001604052806000815250610031816100b960201b60201c565b50600073ffffffffffffffffffffffffffffffffffffffff168173ffffffffffffffffffffffffffffffffffffffff16036100a45760006040517f1e4fbdf700000000000000000000000000000000000000000000000000000000815260040161009b91906101d3565b60405180910390fd5b6100b3816100cc60201b60201c565b50610510565b80600290816100c8919061043e565b5050565b6000600360009054906101000a900473ffffffffffffffffffffffffffffffffffffffff16905081600360006101000a81548173ffffffffffffffffffffffffffffffffffffffff021916908373ffffffffffffffffffffffffffffffffffffffff1602179055508173ffffffffffffffffffffffffffffffffffffffff168173ffffffffffffffffffffffffffffffffffffffff167f8be0079c531659141344cd1fd0a4f28419497f9722a3daafe3b4186f6b6457e060405160405180910390a35050565b600073ffffffffffffffffffffffffffffffffffffffff82169050919050565b60006101bd82610192565b9050919050565b6101cd816101b2565b82525050565b60006020820190506101e860008301846101c4565b92915050565b600081519050919050565b7f4e487b7100000000000000000000000000000000000000000000000000000000600052604160045260246000fd5b7f4e487b7100000000000000000000000000000000000000000000000000000000600052602260045260246000fd5b6000600282049050600182168061026f57607f821691505b60208210810361028257610281610228565b5b50919050565b60008190508160005260206000209050919050565b60006020601f8301049050919050565b600082821b905092915050565b6000600883026102ea7fffffffffffffffffffffffffffffffffffffffffffffffffffffffffffffffff826102ad565b6102f486836102ad565b95508019841693508086168417925050509392505050565b6000819050919050565b6000819050919050565b600061033b6103366103318461030c565b610316565b61030c565b9050919050565b6000819050919050565b61035583610320565b61036961036182610342565b8484546102ba565b825550505050565b600090565b61037e610371565b61038981848461034c565b505050565b5b818110156103ad576103a2600082610376565b60018101905061038f565b5050565b601f8211156103f2576103c381610288565b6103cc8461029d565b810160208510156103db578190505b6103ef6103e78561029d565b83018261038e565b50505b505050565b600082821c905092915050565b6000610415600019846008026103f7565b1980831691505092915050565b600061042e8383610404565b9150826002028217905092915050565b610447826101ee565b67ffffffffffffffff8111156104605761045f6101f9565b5b61046a8254610257565b6104758282856103b1565b600060209050601f8311600181146104a85760008415610496578287015190505b6104a08582610422565b865550610508565b601f1984166104b686610288565b60005b828110156104de578489015182556001820191506020850194506020810190506104b9565b868310156104fb57848901516104f7601f891682610404565b8355505b6001600288020188555050505b505050505050565b6128328061051f6000396000f3fe608060405234801561001057600080fd5b50600436106100ce5760003560e01c8063715018a61161008c578063bb7fde7111610066578063bb7fde7114610224578063e985e9c514610254578063f242432a14610284578063f2fde38b146102a0576100ce565b8063715018a6146101e05780638da5cb5b146101ea578063a22cb46514610208576100ce565b8062fdd58e146100d357806301ffc9a7146101035780630e89341c14610133578063265aa621146101635780632eb2c2d6146101945780634e1273f4146101b0575b600080fd5b6100ed60048036038101906100e8919061184e565b6102bc565b6040516100fa919061189d565b60405180910390f35b61011d60048036038101906101189190611910565b610316565b60405161012a9190611958565b60405180910390f35b61014d60048036038101906101489190611973565b6103f8565b60405161015a9190611a30565b60405180910390f35b61017d60048036038101906101789190611973565b6104a0565b60405161018b929190611a52565b60405180910390f35b6101ae60048036038101906101a99190611c7f565b61054c565b005b6101ca60048036038101906101c59190611e11565b6105f4565b6040516101d79190611f47565b60405180910390f35b6101e86106fd565b005b6101f2610711565b6040516101ff9190611f78565b60405180910390f35b610222600480360381019061021d9190611fbf565b61073b565b005b61023e600480360381019061023991906120a0565b610751565b60405161024b919061189d565b60405180910390f35b61026e60048036038101906102699190612123565b6107ff565b60405161027b9190611958565b60405180910390f35b61029e60048036038101906102999190612163565b610893565b005b6102ba60048036038101906102b591906121fa565b61093b565b005b600080600083815260200190815260200160002060008473ffffffffffffffffffffffffffffffffffffffff1673ffffffffffffffffffffffffffffffffffffffff16815260200190815260200160002054905092915050565b60007fd9b67a26000000000000000000000000000000000000000000000000000000007bffffffffffffffffffffffffffffffffffffffffffffffffffffffff1916827bffffffffffffffffffffffffffffffffffffffffffffffffffffffff191614806103e157507f0e89341c000000000000000000000000000000000000000000000000000000007bffffffffffffffffffffffffffffffffffffffffffffffffffffffff1916827bffffffffffffffffffffffffffffffffffffffffffffffffffffffff1916145b806103f157506103f0826109c1565b5b9050919050565b606060046000838152602001908152602001600020600101805461041b90612256565b80601f016020809104026020016040519081016040528092919081815260200182805461044790612256565b80156104945780601f1061046957610100808354040283529160200191610494565b820191906000526020600020905b81548152906001019060200180831161047757829003601f168201915b50505050509050919050565b60046020528060005260406000206000915090508060000154908060010180546104c990612256565b80601f01602080910402602001604051908101604052809291908181526020018280546104f590612256565b80156105425780601f1061051757610100808354040283529160200191610542565b820191906000526020600020905b81548152906001019060200180831161052557829003601f168201915b5050505050905082565b6000610556610a2b565b90508073ffffffffffffffffffffffffffffffffffffffff168673ffffffffffffffffffffffffffffffffffffffff161415801561059b575061059986826107ff565b155b156105df5780866040517fe237d9220000000000000000000000000000000000000000000000000000000081526004016105d6929190612287565b60405180910390fd5b6105ec8686868686610a33565b505050505050565b6060815183511461064057815183516040517f5b0599910000000000000000000000000000000000000000000000000000000081526004016106379291906122b0565b60405180910390fd5b6000835167ffffffffffffffff81111561065d5761065c611a87565b5b60405190808252806020026020018201604052801561068b5781602001602082028036833780820191505090505b50905060005b84518110156106f2576106c86106b08287610b2b90919063ffffffff16565b6106c38387610b3f90919063ffffffff16565b6102bc565b8282815181106106db576106da6122d9565b5b602002602001018181525050806001019050610691565b508091505092915050565b610705610b53565b61070f6000610bda565b565b6000600360009054906101000a900473ffffffffffffffffffffffffffffffffffffffff16905090565b61074d610746610a2b565b8383610ca0565b5050565b60006040518060400160405280858152602001838152506004600086815260200190815260200160002060008201518160000155602082015181600101908161079a91906124b4565b509050506107b985858560405180602001604052806000815250610e10565b7f97e133605a9dc1efc14cb96df12d8f7f4904bc8c5832b0fb80df5d635e0e68d78486846040516107ec93929190612586565b60405180910390a1839050949350505050565b6000600160008473ffffffffffffffffffffffffffffffffffffffff1673ffffffffffffffffffffffffffffffffffffffff16815260200190815260200160002060008373ffffffffffffffffffffffffffffffffffffffff1673ffffffffffffffffffffffffffffffffffffffff16815260200190815260200160002060009054906101000a900460ff16905092915050565b600061089d610a2b565b90508073ffffffffffffffffffffffffffffffffffffffff168673ffffffffffffffffffffffffffffffffffffffff16141580156108e257506108e086826107ff565b155b156109265780866040517fe237d92200000000000000000000000000000000000000000000000000000000815260040161091d929190612287565b60405180910390fd5b6109338686868686610ea9565b505050505050565b610943610b53565b600073ffffffffffffffffffffffffffffffffffffffff168173ffffffffffffffffffffffffffffffffffffffff16036109b55760006040517f1e4fbdf70000000000000000000000000000000000000000000000000000000081526004016109ac9190611f78565b60405180910390fd5b6109be81610bda565b50565b60007f01ffc9a7000000000000000000000000000000000000000000000000000000007bffffffffffffffffffffffffffffffffffffffffffffffffffffffff1916827bffffffffffffffffffffffffffffffffffffffffffffffffffffffff1916149050919050565b600033905090565b600073ffffffffffffffffffffffffffffffffffffffff168473ffffffffffffffffffffffffffffffffffffffff1603610aa55760006040517f57f447ce000000000000000000000000000000000000000000000000000000008152600401610a9c9190611f78565b60405180910390fd5b600073ffffffffffffffffffffffffffffffffffffffff168573ffffffffffffffffffffffffffffffffffffffff1603610b175760006040517f01a83514000000000000000000000000000000000000000000000000000000008152600401610b0e9190611f78565b60405180910390fd5b610b248585858585610fb4565b5050505050565b600060208202602084010151905092915050565b600060208202602084010151905092915050565b610b5b610a2b565b73ffffffffffffffffffffffffffffffffffffffff16610b79610711565b73ffffffffffffffffffffffffffffffffffffffff1614610bd857610b9c610a2b565b6040517f118cdaa7000000000000000000000000000000000000000000000000000000008152600401610bcf9190611f78565b60405180910390fd5b565b6000600360009054906101000a900473ffffffffffffffffffffffffffffffffffffffff16905081600360006101000a81548173ffffffffffffffffffffffffffffffffffffffff021916908373ffffffffffffffffffffffffffffffffffffffff1602179055508173ffffffffffffffffffffffffffffffffffffffff168173ffffffffffffffffffffffffffffffffffffffff167f8be0079c531659141344cd1fd0a4f28419497f9722a3daafe3b4186f6b6457e060405160405180910390a35050565b600073ffffffffffffffffffffffffffffffffffffffff168273ffffffffffffffffffffffffffffffffffffffff1603610d125760006040517fced3e100000000000000000000000000000000000000000000000000000000008152600401610d099190611f78565b60405180910390fd5b80600160008573ffffffffffffffffffffffffffffffffffffffff1673ffffffffffffffffffffffffffffffffffffffff16815260200190815260200160002060008473ffffffffffffffffffffffffffffffffffffffff1673ffffffffffffffffffffffffffffffffffffffff16815260200190815260200160002060006101000a81548160ff0219169083151502179055508173ffffffffffffffffffffffffffffffffffffffff168373ffffffffffffffffffffffffffffffffffffffff167f17307eab39ab6107e8899845ad3d59bd9653f200f220920489ca2b5937696c3183604051610e039190611958565b60405180910390a3505050565b600073ffffffffffffffffffffffffffffffffffffffff168473ffffffffffffffffffffffffffffffffffffffff1603610e825760006040517f57f447ce000000000000000000000000000000000000000000000000000000008152600401610e799190611f78565b60405180910390fd5b600080610e8f8585611066565b91509150610ea1600087848487610fb4565b505050505050565b600073ffffffffffffffffffffffffffffffffffffffff168473ffffffffffffffffffffffffffffffffffffffff1603610f1b5760006040517f57f447ce000000000000000000000000000000000000000000000000000000008152600401610f129190611f78565b60405180910390fd5b600073ffffffffffffffffffffffffffffffffffffffff168573ffffffffffffffffffffffffffffffffffffffff1603610f8d5760006040517f01a83514000000000000000000000000000000000000000000000000000000008152600401610f849190611f78565b60405180910390fd5b600080610f9a8585611066565b91509150610fab8787848487610fb4565b50505050505050565b610fc085858585611096565b600073ffffffffffffffffffffffffffffffffffffffff168473ffffffffffffffffffffffffffffffffffffffff161461105f576000610ffe610a2b565b9050600184510361104e57600061101f600086610b3f90919063ffffffff16565b90506000611037600086610b3f90919063ffffffff16565b905061104783898985858961143e565b505061105d565b61105c8187878787876115f2565b5b505b5050505050565b60608060405191506001825283602083015260408201905060018152826020820152604081016040529250929050565b80518251146110e057815181516040517f5b0599910000000000000000000000000000000000000000000000000000000081526004016110d79291906122b0565b60405180910390fd5b60006110ea610a2b565b905060005b83518110156112f957600061110d8286610b3f90919063ffffffff16565b905060006111248386610b3f90919063ffffffff16565b9050600073ffffffffffffffffffffffffffffffffffffffff168873ffffffffffffffffffffffffffffffffffffffff161461125157600080600084815260200190815260200160002060008a73ffffffffffffffffffffffffffffffffffffffff1673ffffffffffffffffffffffffffffffffffffffff168152602001908152602001600020549050818110156111f957888183856040517f03dee4c50000000000000000000000000000000000000000000000000000000081526004016111f094939291906125c4565b60405180910390fd5b81810360008085815260200190815260200160002060008b73ffffffffffffffffffffffffffffffffffffffff1673ffffffffffffffffffffffffffffffffffffffff16815260200190815260200160002081905550505b600073ffffffffffffffffffffffffffffffffffffffff168773ffffffffffffffffffffffffffffffffffffffff16146112ec578060008084815260200190815260200160002060008973ffffffffffffffffffffffffffffffffffffffff1673ffffffffffffffffffffffffffffffffffffffff16815260200190815260200160002060008282546112e49190612638565b925050819055505b50508060010190506110ef565b5060018351036113b8576000611319600085610b3f90919063ffffffff16565b90506000611331600085610b3f90919063ffffffff16565b90508573ffffffffffffffffffffffffffffffffffffffff168773ffffffffffffffffffffffffffffffffffffffff168473ffffffffffffffffffffffffffffffffffffffff167fc3d58168c5ae7397731d063d5bbf3d657854427343f4c083240f7aacaa2d0f6285856040516113a99291906122b0565b60405180910390a45050611437565b8373ffffffffffffffffffffffffffffffffffffffff168573ffffffffffffffffffffffffffffffffffffffff168273ffffffffffffffffffffffffffffffffffffffff167f4a39dc06d4c0dbc64b70af90fd698a233a518aa5d07e595d983b8c0526c8f7fb868660405161142e92919061266c565b60405180910390a45b5050505050565b60008473ffffffffffffffffffffffffffffffffffffffff163b11156115ea578373ffffffffffffffffffffffffffffffffffffffff1663f23a6e6187878686866040518663ffffffff1660e01b815260040161149f9594939291906126f8565b6020604051808303816000875af19250505080156114db57506040513d601f19601f820116820180604052508101906114d89190612767565b60015b61155f573d806000811461150b576040519150601f19603f3d011682016040523d82523d6000602084013e611510565b606091505b50600081510361155757846040517f57f447ce00000000000000000000000000000000000000000000000000000000815260040161154e9190611f78565b60405180910390fd5b805181602001fd5b63f23a6e6160e01b7bffffffffffffffffffffffffffffffffffffffffffffffffffffffff1916817bffffffffffffffffffffffffffffffffffffffffffffffffffffffff1916146115e857846040517f57f447ce0000000000000000000000000000000000000000000000000000000081526004016115df9190611f78565b60405180910390fd5b505b505050505050565b60008473ffffffffffffffffffffffffffffffffffffffff163b111561179e578373ffffffffffffffffffffffffffffffffffffffff1663bc197c8187878686866040518663ffffffff1660e01b8152600401611653959493929190612794565b6020604051808303816000875af192505050801561168f57506040513d601f19601f8201168201806040525081019061168c9190612767565b60015b611713573d80600081146116bf576040519150601f19603f3d011682016040523d82523d6000602084013e6116c4565b606091505b50600081510361170b57846040517f57f447ce0000000000000000000000000000000000000000000000000000000081526004016117029190611f78565b60405180910390fd5b805181602001fd5b63bc197c8160e01b7bffffffffffffffffffffffffffffffffffffffffffffffffffffffff1916817bffffffffffffffffffffffffffffffffffffffffffffffffffffffff19161461179c57846040517f57f447ce0000000000000000000000000000000000000000000000000000000081526004016117939190611f78565b60405180910390fd5b505b505050505050565b6000604051905090565b600080fd5b600080fd5b600073ffffffffffffffffffffffffffffffffffffffff82169050919050565b60006117e5826117ba565b9050919050565b6117f5816117da565b811461180057600080fd5b50565b600081359050611812816117ec565b92915050565b6000819050919050565b61182b81611818565b811461183657600080fd5b50565b60008135905061184881611822565b92915050565b60008060408385031215611865576118646117b0565b5b600061187385828601611803565b925050602061188485828601611839565b9150509250929050565b61189781611818565b82525050565b60006020820190506118b2600083018461188e565b92915050565b60007fffffffff0000000000000000000000000000000000000000000000000000000082169050919050565b6118ed816118b8565b81146118f857600080fd5b50565b60008135905061190a816118e4565b92915050565b600060208284031215611926576119256117b0565b5b6000611934848285016118fb565b91505092915050565b60008115159050919050565b6119528161193d565b82525050565b600060208201905061196d6000830184611949565b92915050565b600060208284031215611989576119886117b0565b5b600061199784828501611839565b91505092915050565b600081519050919050565b600082825260208201905092915050565b60005b838110156119da5780820151818401526020810190506119bf565b60008484015250505050565b6000601f19601f8301169050919050565b6000611a02826119a0565b611a0c81856119ab565b9350611a1c8185602086016119bc565b611a25816119e6565b840191505092915050565b60006020820190508181036000830152611a4a81846119f7565b905092915050565b6000604082019050611a67600083018561188e565b8181036020830152611a7981846119f7565b90509392505050565b600080fd5b7f4e487b7100000000000000000000000000000000000000000000000000000000600052604160045260246000fd5b611abf826119e6565b810181811067ffffffffffffffff82111715611ade57611add611a87565b5b80604052505050565b6000611af16117a6565b9050611afd8282611ab6565b919050565b600067ffffffffffffffff821115611b1d57611b1c611a87565b5b602082029050602081019050919050565b600080fd5b6000611b46611b4184611b02565b611ae7565b90508083825260208201905060208402830185811115611b6957611b68611b2e565b5b835b81811015611b925780611b7e8882611839565b845260208401935050602081019050611b6b565b5050509392505050565b600082601f830112611bb157611bb0611a82565b5b8135611bc1848260208601611b33565b91505092915050565b600080fd5b600067ffffffffffffffff821115611bea57611be9611a87565b5b611bf3826119e6565b9050602081019050919050565b82818337600083830152505050565b6000611c22611c1d84611bcf565b611ae7565b905082815260208101848484011115611c3e57611c3d611bca565b5b611c49848285611c00565b509392505050565b600082601f830112611c6657611c65611a82565b5b8135611c76848260208601611c0f565b91505092915050565b600080600080600060a08688031215611c9b57611c9a6117b0565b5b6000611ca988828901611803565b9550506020611cba88828901611803565b945050604086013567ffffffffffffffff811115611cdb57611cda6117b5565b5b611ce788828901611b9c565b935050606086013567ffffffffffffffff811115611d0857611d076117b5565b5b611d1488828901611b9c565b925050608086013567ffffffffffffffff811115611d3557611d346117b5565b5b611d4188828901611c51565b9150509295509295909350565b600067ffffffffffffffff821115611d6957611d68611a87565b5b602082029050602081019050919050565b6000611d8d611d8884611d4e565b611ae7565b90508083825260208201905060208402830185811115611db057611daf611b2e565b5b835b81811015611dd95780611dc58882611803565b845260208401935050602081019050611db2565b5050509392505050565b600082601f830112611df857611df7611a82565b5b8135611e08848260208601611d7a565b91505092915050565b60008060408385031215611e2857611e276117b0565b5b600083013567ffffffffffffffff811115611e4657611e456117b5565b5b611e5285828601611de3565b925050602083013567ffffffffffffffff811115611e7357611e726117b5565b5b611e7f85828601611b9c565b9150509250929050565b600081519050919050565b600082825260208201905092915050565b6000819050602082019050919050565b611ebe81611818565b82525050565b6000611ed08383611eb5565b60208301905092915050565b6000602082019050919050565b6000611ef482611e89565b611efe8185611e94565b9350611f0983611ea5565b8060005b83811015611f3a578151611f218882611ec4565b9750611f2c83611edc565b925050600181019050611f0d565b5085935050505092915050565b60006020820190508181036000830152611f618184611ee9565b905092915050565b611f72816117da565b82525050565b6000602082019050611f8d6000830184611f69565b92915050565b611f9c8161193d565b8114611fa757600080fd5b50565b600081359050611fb981611f93565b92915050565b60008060408385031215611fd657611fd56117b0565b5b6000611fe485828601611803565b9250506020611ff585828601611faa565b9150509250929050565b600067ffffffffffffffff82111561201a57612019611a87565b5b612023826119e6565b9050602081019050919050565b600061204361203e84611fff565b611ae7565b90508281526020810184848401111561205f5761205e611bca565b5b61206a848285611c00565b509392505050565b600082601f83011261208757612086611a82565b5b8135612097848260208601612030565b91505092915050565b600080600080608085870312156120ba576120b96117b0565b5b60006120c887828801611803565b94505060206120d987828801611839565b93505060406120ea87828801611839565b925050606085013567ffffffffffffffff81111561210b5761210a6117b5565b5b61211787828801612072565b91505092959194509250565b6000806040838503121561213a576121396117b0565b5b600061214885828601611803565b925050602061215985828601611803565b9150509250929050565b600080600080600060a0868803121561217f5761217e6117b0565b5b600061218d88828901611803565b955050602061219e88828901611803565b94505060406121af88828901611839565b93505060606121c088828901611839565b925050608086013567ffffffffffffffff8111156121e1576121e06117b5565b5b6121ed88828901611c51565b9150509295509295909350565b6000602082840312156122105761220f6117b0565b5b600061221e84828501611803565b91505092915050565b7f4e487b7100000000000000000000000000000000000000000000000000000000600052602260045260246000fd5b6000600282049050600182168061226e57607f821691505b60208210810361228157612280612227565b5b50919050565b600060408201905061229c6000830185611f69565b6122a96020830184611f69565b9392505050565b60006040820190506122c5600083018561188e565b6122d2602083018461188e565b9392505050565b7f4e487b7100000000000000000000000000000000000000000000000000000000600052603260045260246000fd5b60008190508160005260206000209050919050565b60006020601f8301049050919050565b600082821b905092915050565b60006008830261236a7fffffffffffffffffffffffffffffffffffffffffffffffffffffffffffffffff8261232d565b612374868361232d565b95508019841693508086168417925050509392505050565b6000819050919050565b60006123b16123ac6123a784611818565b61238c565b611818565b9050919050565b6000819050919050565b6123cb83612396565b6123df6123d7826123b8565b84845461233a565b825550505050565b600090565b6123f46123e7565b6123ff8184846123c2565b505050565b5b81811015612423576124186000826123ec565b600181019050612405565b5050565b601f8211156124685761243981612308565b6124428461231d565b81016020851015612451578190505b61246561245d8561231d565b830182612404565b50505b505050565b600082821c905092915050565b600061248b6000198460080261246d565b1980831691505092915050565b60006124a4838361247a565b9150826002028217905092915050565b6124bd826119a0565b67ffffffffffffffff8111156124d6576124d5611a87565b5b6124e08254612256565b6124eb828285612427565b600060209050601f83116001811461251e576000841561250c578287015190505b6125168582612498565b86555061257e565b601f19841661252c86612308565b60005b828110156125545784890151825560018201915060208501945060208101905061252f565b86831015612571578489015161256d601f89168261247a565b8355505b6001600288020188555050505b505050505050565b600060608201905061259b600083018661188e565b6125a86020830185611f69565b81810360408301526125ba81846119f7565b9050949350505050565b60006080820190506125d96000830187611f69565b6125e6602083018661188e565b6125f3604083018561188e565b612600606083018461188e565b95945050505050565b7f4e487b7100000000000000000000000000000000000000000000000000000000600052601160045260246000fd5b600061264382611818565b915061264e83611818565b925082820190508082111561266657612665612609565b5b92915050565b600060408201905081810360008301526126868185611ee9565b9050818103602083015261269a8184611ee9565b90509392505050565b600081519050919050565b600082825260208201905092915050565b60006126ca826126a3565b6126d481856126ae565b93506126e48185602086016119bc565b6126ed816119e6565b840191505092915050565b600060a08201905061270d6000830188611f69565b61271a6020830187611f69565b612727604083018661188e565b612734606083018561188e565b818103608083015261274681846126bf565b90509695505050505050565b600081519050612761816118e4565b92915050565b60006020828403121561277d5761277c6117b0565b5b600061278b84828501612752565b91505092915050565b600060a0820190506127a96000830188611f69565b6127b66020830187611f69565b81810360408301526127c88186611ee9565b905081810360608301526127dc8185611ee9565b905081810360808301526127f081846126bf565b9050969550505050505056fea26469706673582212206d0e57f0547d5840c4082a01bcedd88dc4c5a005d2b52356174d4584f0cffd3664736f6c634300081c0033",
  "linkReferences": {},
  "deployedLinkReferences": {}
}