{
  "_format": "hh-sol-artifact-1",
  "contractName": "NebulaXMarketplace",
  "sourceName": "contracts/NebulaX.sol",
  "abi": [
    {
      "inputs": [
        {
          "internalType": "address",
          "name": "_nebToken",
          "type": "address"
        },
        {
          "internalType": "address",
          "name": "_nebulaXToken",
          "type": "address"
        }
      ],
      "stateMutability": "nonpayable",
      "type": "constructor"
    },
    {
      "inputs": [
        {
          "internalType": "address",
          "name": "owner",
          "type": "address"
        }
      ],
      "name": "OwnableInvalidOwner",
      "type": "error"
    },
    {
      "inputs": [
        {
          "internalType": "address",
          "name": "account",
          "type": "address"
        }
      ],
      "name": "OwnableUnauthorizedAccount",
      "type": "error"
    },
    {
      "anonymous": false,
      "inputs": [
        {
          "indexed": false,
          "internalType": "uint256",
          "name": "id",
          "type": "uint256"
        },
        {
          "indexed": false,
          "internalType": "address",
          "name": "creator",
          "type": "address"
        },
        {
          "indexed": false,
          "internalType": "string",
          "name": "uri",
          "type": "string"
        },
        {
          "indexed": false,
          "internalType": "uint256",
          "name": "royalty",
          "type": "uint256"
        }
      ],
      "name": "NFTCreated",
      "type": "event"
    },
    {
      "anonymous": false,
      "inputs": [
        {
          "indexed": false,
          "internalType": "uint256",
          "name": "tokenId",
          "type": "uint256"
        },
        {
          "indexed": false,
          "internalType": "address",
          "name": "seller",
          "type": "address"
        },
        {
          "indexed": false,
          "internalType": "uint256",
          "name": "price",
          "type": "uint256"
        },
        {
          "indexed": false,
          "internalType": "uint256",
          "name": "amount",
          "type": "uint256"
        }
      ],
      "name": "NFTListed",
      "type": "event"
    },
    {
      "anonymous": false,
      "inputs": [
        {
          "indexed": false,
          "internalType": "uint256",
          "name": "tokenId",
          "type": "uint256"
        },
        {
          "indexed": false,
          "internalType": "address",
          "name": "seller",
          "type": "address"
        },
        {
          "indexed": false,
          "internalType": "address",
          "name": "buyer",
          "type": "address"
        },
        {
          "indexed": false,
          "internalType": "uint256",
          "name": "price",
          "type": "uint256"
        }
      ],
      "name": "NFTSold",
      "type": "event"
    },
    {
      "anonymous": false,
      "inputs": [
        {
          "indexed": false,
          "internalType": "uint256",
          "name": "tokenId",
          "type": "uint256"
        },
        {
          "indexed": false,
          "internalType": "address",
          "name": "seller",
          "type": "address"
        }
      ],
      "name": "NFTUnlisted",
      "type": "event"
    },
    {
      "anonymous": false,
      "inputs": [
        {
          "indexed": true,
          "internalType": "address",
          "name": "previousOwner",
          "type": "address"
        },
        {
          "indexed": true,
          "internalType": "address",
          "name": "newOwner",
          "type": "address"
        }
      ],
      "name": "OwnershipTransferred",
      "type": "event"
    },
    {
      "anonymous": false,
      "inputs": [
        {
          "indexed": false,
          "internalType": "uint256",
          "name": "id",
          "type": "uint256"
        },
        {
          "indexed": false,
          "internalType": "address",
          "name": "participant",
          "type": "address"
        }
      ],
      "name": "RaffleEntered",
      "type": "event"
    },
    {
      "anonymous": false,
      "inputs": [
        {
          "indexed": false,
          "internalType": "uint256",
          "name": "id",
          "type": "uint256"
        },
        {
          "indexed": false,
          "internalType": "uint256",
          "name": "requestId",
          "type": "uint256"
        }
      ],
      "name": "RaffleStarted",
      "type": "event"
    },
    {
      "anonymous": false,
      "inputs": [
        {
          "indexed": false,
          "internalType": "uint256",
          "name": "id",
          "type": "uint256"
        },
        {
          "indexed": false,
          "internalType": "address",
          "name": "winner",
          "type": "address"
        }
      ],
      "name": "RaffleWinner",
      "type": "event"
    },
    {
      "inputs": [
        {
          "internalType": "uint256",
          "name": "_price",
          "type": "uint256"
        },
        {
          "internalType": "string",
          "name": "_uri",
          "type": "string"
        },
        {
          "internalType": "uint8",
          "name": "_royalty",
          "type": "uint8"
        },
        {
          "internalType": "uint256",
          "name": "_amount",
          "type": "uint256"
        },
        {
          "internalType": "bool",
          "name": "_list",
          "type": "bool"
        }
      ],
      "name": "CreateNFT",
      "outputs": [],
      "stateMutability": "nonpayable",
      "type": "function"
    },
    {
      "inputs": [
        {
          "internalType": "uint256",
          "name": "",
          "type": "uint256"
        }
      ],
      "name": "Creators",
      "outputs": [
        {
          "internalType": "uint8",
          "name": "royalty",
          "type": "uint8"
        },
        {
          "internalType": "address",
          "name": "creator",
          "type": "address"
        }
      ],
      "stateMutability": "view",
      "type": "function"
    },
    {
      "inputs": [
        {
          "internalType": "address",
          "name": "_seller",
          "type": "address"
        },
        {
          "internalType": "uint256",
          "name": "_tokenId",
          "type": "uint256"
        },
        {
          "internalType": "uint256",
          "name": "_amount",
          "type": "uint256"
        }
      ],
      "name": "buyNFT",
      "outputs": [],
      "stateMutability": "nonpayable",
      "type": "function"
    },
    {
      "inputs": [
        {
          "internalType": "uint256",
          "name": "_tokenId",
          "type": "uint256"
        },
        {
          "internalType": "address",
          "name": "_seller",
          "type": "address"
        }
      ],
      "name": "enterRaffle",
      "outputs": [],
      "stateMutability": "nonpayable",
      "type": "function"
    },
    {
      "inputs": [],
      "name": "getListedNFTs",
      "outputs": [
        {
          "internalType": "uint256[]",
          "name": "",
          "type": "uint256[]"
        },
        {
          "internalType": "address[]",
          "name": "",
          "type": "address[]"
        },
        {
          "components": [
            {
              "internalType": "uint256",
              "name": "id",
              "type": "uint256"
            },
            {
              "internalType": "uint256",
              "name": "price",
              "type": "uint256"
            },
            {
              "internalType": "uint8",
              "name": "royalty",
              "type": "uint8"
            },
            {
              "internalType": "uint256",
              "name": "amount",
              "type": "uint256"
            },
            {
              "internalType": "address",
              "name": "creator",
              "type": "address"
            },
            {
              "internalType": "address",
              "name": "seller",
              "type": "address"
            },
            {
              "internalType": "bool",
              "name": "isListed",
              "type": "bool"
            }
          ],
          "internalType": "struct NebulaXMarketplace.Listing[]",
          "name": "",
          "type": "tuple[]"
        }
      ],
      "stateMutability": "view",
      "type": "function"
    },
    {
      "inputs": [
        {
          "internalType": "uint256",
          "name": "_tokenId",
          "type": "uint256"
        },
        {
          "internalType": "uint256",
          "name": "_price",
          "type": "uint256"
        },
        {
          "internalType": "uint256",
          "name": "_amount",
          "type": "uint256"
        }
      ],
      "name": "listNFT",
      "outputs": [],
      "stateMutability": "nonpayable",
      "type": "function"
    },
    {
      "inputs": [
        {
          "internalType": "uint256",
          "name": "",
          "type": "uint256"
        }
      ],
      "name": "listedTokenIds",
      "outputs": [
        {
          "internalType": "uint256",
          "name": "",
          "type": "uint256"
        }
      ],
      "stateMutability": "view",
      "type": "function"
    },
    {
      "inputs": [
        {
          "internalType": "uint256",
          "name": "",
          "type": "uint256"
        },
        {
          "internalType": "address",
          "name": "",
          "type": "address"
        }
      ],
      "name": "listings",
      "outputs": [
        {
          "internalType": "uint256",
          "name": "id",
          "type": "uint256"
        },
        {
          "internalType": "uint256",
          "name": "price",
          "type": "uint256"
        },
        {
          "internalType": "uint8",
          "name": "royalty",
          "type": "uint8"
        },
        {
          "internalType": "uint256",
          "name": "amount",
          "type": "uint256"
        },
        {
          "internalType": "address",
          "name": "creator",
          "type": "address"
        },
        {
          "internalType": "address",
          "name": "seller",
          "type": "address"
        },
        {
          "internalType": "bool",
          "name": "isListed",
          "type": "bool"
        }
      ],
      "stateMutability": "view",
      "type": "function"
    },
    {
      "inputs": [],
      "name": "nebToken",
      "outputs": [
        {
          "internalType": "contract IERC20",
          "name": "",
          "type": "address"
        }
      ],
      "stateMutability": "view",
      "type": "function"
    },
    {
      "inputs": [],
      "name": "nebulaXToken",
      "outputs": [
        {
          "internalType": "contract IERC1155",
          "name": "",
          "type": "address"
        }
      ],
      "stateMutability": "view",
      "type": "function"
    },
    {
      "inputs": [],
      "name": "owner",
      "outputs": [
        {
          "internalType": "address",
          "name": "",
          "type": "address"
        }
      ],
      "stateMutability": "view",
      "type": "function"
    },
    {
      "inputs": [
        {
          "internalType": "uint256",
          "name": "",
          "type": "uint256"
        }
      ],
      "name": "raffleCompleted",
      "outputs": [
        {
          "internalType": "bool",
          "name": "",
          "type": "bool"
        }
      ],
      "stateMutability": "view",
      "type": "function"
    },
    {
      "inputs": [
        {
          "internalType": "uint256",
          "name": "",
          "type": "uint256"
        },
        {
          "internalType": "uint256",
          "name": "",
          "type": "uint256"
        }
      ],
      "name": "raffleParticipants",
      "outputs": [
        {
          "internalType": "address",
          "name": "",
          "type": "address"
        }
      ],
      "stateMutability": "view",
      "type": "function"
    },
    {
      "inputs": [
        {
          "internalType": "uint256",
          "name": "",
          "type": "uint256"
        }
      ],
      "name": "raffleRequestIdToTokenId",
      "outputs": [
        {
          "internalType": "uint256",
          "name": "",
          "type": "uint256"
        }
      ],
      "stateMutability": "view",
      "type": "function"
    },
    {
      "inputs": [],
      "name": "renounceOwnership",
      "outputs": [],
      "stateMutability": "nonpayable",
      "type": "function"
    },
    {
      "inputs": [
        {
          "internalType": "uint256",
          "name": "_tokenId",
          "type": "uint256"
        },
        {
          "internalType": "address",
          "name": "_seller",
          "type": "address"
        }
      ],
      "name": "startRaffle",
      "outputs": [],
      "stateMutability": "nonpayable",
      "type": "function"
    },
    {
      "inputs": [
        {
          "internalType": "uint256",
          "name": "",
          "type": "uint256"
        },
        {
          "internalType": "uint256",
          "name": "",
          "type": "uint256"
        }
      ],
      "name": "tokenIdToSellers",
      "outputs": [
        {
          "internalType": "address",
          "name": "",
          "type": "address"
        }
      ],
      "stateMutability": "view",
      "type": "function"
    },
    {
      "inputs": [
        {
          "internalType": "address",
          "name": "newOwner",
          "type": "address"
        }
      ],
      "name": "transferOwnership",
      "outputs": [],
      "stateMutability": "nonpayable",
      "type": "function"
    },
    {
      "inputs": [
        {
          "internalType": "uint256",
          "name": "_tokenId",
          "type": "uint256"
        }
      ],
      "name": "unlistNFT",
      "outputs": [],
      "stateMutability": "nonpayable",
      "type": "function"
    }
  ],
  "bytecode": "0x608060405234801561001057600080fd5b506040516148df3803806148df83398181016040528101906100329190610265565b33600073ffffffffffffffffffffffffffffffffffffffff168173ffffffffffffffffffffffffffffffffffffffff16036100a55760006040517f1e4fbdf700000000000000000000000000000000000000000000000000000000815260040161009c91906102b4565b60405180910390fd5b6100b48161013e60201b60201c565b5081600460006101000a81548173ffffffffffffffffffffffffffffffffffffffff021916908373ffffffffffffffffffffffffffffffffffffffff16021790555080600360006101000a81548173ffffffffffffffffffffffffffffffffffffffff021916908373ffffffffffffffffffffffffffffffffffffffff16021790555050506102cf565b60008060009054906101000a900473ffffffffffffffffffffffffffffffffffffffff169050816000806101000a81548173ffffffffffffffffffffffffffffffffffffffff021916908373ffffffffffffffffffffffffffffffffffffffff1602179055508173ffffffffffffffffffffffffffffffffffffffff168173ffffffffffffffffffffffffffffffffffffffff167f8be0079c531659141344cd1fd0a4f28419497f9722a3daafe3b4186f6b6457e060405160405180910390a35050565b600080fd5b600073ffffffffffffffffffffffffffffffffffffffff82169050919050565b600061023282610207565b9050919050565b61024281610227565b811461024d57600080fd5b50565b60008151905061025f81610239565b92915050565b6000806040838503121561027c5761027b610202565b5b600061028a85828601610250565b925050602061029b85828601610250565b9150509250929050565b6102ae81610227565b82525050565b60006020820190506102c960008301846102a5565b92915050565b614601806102de6000396000f3fe608060405234801561001057600080fd5b50600436106101215760003560e01c80638da5cb5b116100ad578063b1ddd82a11610071578063b1ddd82a146102fd578063b6feadc81461032d578063e56d01e11461035d578063ee87f32b1461038d578063f2fde38b146103a957610121565b80638da5cb5b14610241578063927fbfc81461025f578063961f094414610295578063a7d80d33146102b1578063b0136c8d146102e157610121565b806353da6f01116100f457806353da6f011461019e5780635c8129a0146101ba578063715018a6146101ea5780638055ccaa146101f45780638b59f7e21461022557610121565b8063012386f0146101265780630d64c49c1461014657806334708f6714610164578063428de2f914610180575b600080fd5b61012e6103c5565b60405161013d9392919061331c565b60405180910390f35b61014e610855565b60405161015b91906133c7565b60405180910390f35b61017e6004803603810190610179919061344e565b61087b565b005b610188610b5d565b60405161019591906134af565b60405180910390f35b6101b860048036038101906101b391906134ca565b610b83565b005b6101d460048036038101906101cf919061351d565b611607565b6040516101e1919061356c565b60405180910390f35b6101f2611655565b005b61020e60048036038101906102099190613587565b611669565b60405161021c9291906135c3565b60405180910390f35b61023f600480360381019061023a919061344e565b6116ba565b005b610249611a1f565b604051610256919061356c565b60405180910390f35b6102796004803603810190610274919061344e565b611a48565b60405161028c979695949392919061360a565b60405180910390f35b6102af60048036038101906102aa9190613587565b611af1565b005b6102cb60048036038101906102c69190613587565b611ff7565b6040516102d89190613679565b60405180910390f35b6102fb60048036038101906102f69190613694565b61200f565b005b6103176004803603810190610312919061351d565b6125af565b604051610324919061356c565b60405180910390f35b61034760048036038101906103429190613587565b6125fd565b6040516103549190613679565b60405180910390f35b61037760048036038101906103729190613587565b612621565b60405161038491906136e7565b60405180910390f35b6103a760048036038101906103a291906138a0565b612641565b005b6103c360048036038101906103be9190613937565b612cf8565b005b60608060606000805b60058054905081101561042a5760066000600583815481106103f3576103f2613964565b5b90600052602060002001548152602001908152602001600020805490508261041b91906139c2565b915080806001019150506103ce565b5060008167ffffffffffffffff8111156104475761044661371d565b5b6040519080825280602002602001820160405280156104755781602001602082028036833780820191505090505b50905060008267ffffffffffffffff8111156104945761049361371d565b5b6040519080825280602002602001820160405280156104c25781602001602082028036833780820191505090505b50905060008367ffffffffffffffff8111156104e1576104e061371d565b5b60405190808252806020026020018201604052801561051a57816020015b610507612f82565b8152602001906001900390816104ff5790505b5090506000805b6005805490508110156108415760006005828154811061054457610543613964565b5b906000526020600020015490506000600660008381526020019081526020016000208054806020026020016040519081016040528092919081815260200182805480156105e657602002820191906000526020600020905b8160009054906101000a900473ffffffffffffffffffffffffffffffffffffffff1673ffffffffffffffffffffffffffffffffffffffff168152602001906001019080831161059c575b5050505050905060005b8151811015610831578288868151811061060d5761060c613964565b5b60200260200101818152505081818151811061062c5761062b613964565b5b602002602001015187868151811061064757610646613964565b5b602002602001019073ffffffffffffffffffffffffffffffffffffffff16908173ffffffffffffffffffffffffffffffffffffffff16815250506008600084815260200190815260200160002060008383815181106106a9576106a8613964565b5b602002602001015173ffffffffffffffffffffffffffffffffffffffff1673ffffffffffffffffffffffffffffffffffffffff1681526020019081526020016000206040518060e001604052908160008201548152602001600182015481526020016002820160009054906101000a900460ff1660ff1660ff168152602001600382015481526020016004820160009054906101000a900473ffffffffffffffffffffffffffffffffffffffff1673ffffffffffffffffffffffffffffffffffffffff1673ffffffffffffffffffffffffffffffffffffffff1681526020016005820160009054906101000a900473ffffffffffffffffffffffffffffffffffffffff1673ffffffffffffffffffffffffffffffffffffffff1673ffffffffffffffffffffffffffffffffffffffff1681526020016005820160149054906101000a900460ff16151515158152505086868151811061080b5761080a613964565b5b60200260200101819052508480610821906139f6565b95505080806001019150506105f0565b5050508080600101915050610521565b508383839750975097505050505050909192565b600360009054906101000a900473ffffffffffffffffffffffffffffffffffffffff1681565b610883612d7e565b60006008600084815260200190815260200160002060008373ffffffffffffffffffffffffffffffffffffffff1673ffffffffffffffffffffffffffffffffffffffff1681526020019081526020016000206040518060e001604052908160008201548152602001600182015481526020016002820160009054906101000a900460ff1660ff1660ff168152602001600382015481526020016004820160009054906101000a900473ffffffffffffffffffffffffffffffffffffffff1673ffffffffffffffffffffffffffffffffffffffff1673ffffffffffffffffffffffffffffffffffffffff1681526020016005820160009054906101000a900473ffffffffffffffffffffffffffffffffffffffff1673ffffffffffffffffffffffffffffffffffffffff1673ffffffffffffffffffffffffffffffffffffffff1681526020016005820160149054906101000a900460ff1615151515815250509050600073ffffffffffffffffffffffffffffffffffffffff16816080015173ffffffffffffffffffffffffffffffffffffffff1603610a57576040517f08c379a0000000000000000000000000000000000000000000000000000000008152600401610a4e90613a9b565b60405180910390fd5b600b600084815260200190815260200160002060009054906101000a900460ff1615610ab8576040517f08c379a0000000000000000000000000000000000000000000000000000000008152600401610aaf90613b07565b60405180910390fd5b6000600a6000858152602001908152602001600020544244604051602001610ae1929190613b48565b6040516020818303038152906040528051906020012060001c610b049190613ba3565b905083600a6000838152602001908152602001600020819055507fe1078fbf8122252d4552c2b9c945a0794c0dcfd34277a548cabe558ebb8fb6608482604051610b4f929190613bd4565b60405180910390a150505050565b600460009054906101000a900473ffffffffffffffffffffffffffffffffffffffff1681565b60006008600084815260200190815260200160002060008573ffffffffffffffffffffffffffffffffffffffff1673ffffffffffffffffffffffffffffffffffffffff16815260200190815260200160002090508060050160149054906101000a900460ff16610c28576040517f08c379a0000000000000000000000000000000000000000000000000000000008152600401610c1f90613c49565b60405180910390fd5b81600360009054906101000a900473ffffffffffffffffffffffffffffffffffffffff1673ffffffffffffffffffffffffffffffffffffffff1662fdd58e8360050160009054906101000a900473ffffffffffffffffffffffffffffffffffffffff16866040518363ffffffff1660e01b8152600401610ca9929190613c69565b602060405180830381865afa158015610cc6573d6000803e3d6000fd5b505050506040513d601f19601f82011682018060405250810190610cea9190613ca7565b1015610d2b576040517f08c379a0000000000000000000000000000000000000000000000000000000008152600401610d2290613d46565b60405180910390fd5b600080610d3c836001015485612e05565b9150915081610d80576040517f08c379a0000000000000000000000000000000000000000000000000000000008152600401610d7790613db2565b60405180910390fd5b80600460009054906101000a900473ffffffffffffffffffffffffffffffffffffffff1673ffffffffffffffffffffffffffffffffffffffff166370a08231336040518263ffffffff1660e01b8152600401610ddc919061356c565b602060405180830381865afa158015610df9573d6000803e3d6000fd5b505050506040513d601f19601f82011682018060405250810190610e1d9190613ca7565b1015610e5e576040517f08c379a0000000000000000000000000000000000000000000000000000000008152600401610e5590613e1e565b60405180910390fd5b600080610e7f838660020160009054906101000a900460ff1660ff16612e05565b9150915081610ec3576040517f08c379a0000000000000000000000000000000000000000000000000000000008152600401610eba90613db2565b60405180910390fd5b600080610ed1836064612e58565b9150915081610f15576040517f08c379a0000000000000000000000000000000000000000000000000000000008152600401610f0c90613e8a565b60405180910390fd5b600080610f228784612e8e565b9150915081610f66576040517f08c379a0000000000000000000000000000000000000000000000000000000008152600401610f5d90613ef6565b60405180910390fd5b600460009054906101000a900473ffffffffffffffffffffffffffffffffffffffff1673ffffffffffffffffffffffffffffffffffffffff166323b872dd338b60040160009054906101000a900473ffffffffffffffffffffffffffffffffffffffff16866040518463ffffffff1660e01b8152600401610fe993929190613f16565b6020604051808303816000875af1158015611008573d6000803e3d6000fd5b505050506040513d601f19601f8201168201806040525081019061102c9190613f62565b61106b576040517f08c379a000000000000000000000000000000000000000000000000000000000815260040161106290613fdb565b60405180910390fd5b600460009054906101000a900473ffffffffffffffffffffffffffffffffffffffff1673ffffffffffffffffffffffffffffffffffffffff166323b872dd338b60050160009054906101000a900473ffffffffffffffffffffffffffffffffffffffff16846040518463ffffffff1660e01b81526004016110ee93929190613f16565b6020604051808303816000875af115801561110d573d6000803e3d6000fd5b505050506040513d601f19601f820116820180604052508101906111319190613f62565b611170576040517f08c379a000000000000000000000000000000000000000000000000000000000815260040161116790614047565b60405180910390fd5b600360009054906101000a900473ffffffffffffffffffffffffffffffffffffffff1673ffffffffffffffffffffffffffffffffffffffff1663f242432a8a60050160009054906101000a900473ffffffffffffffffffffffffffffffffffffffff16338e8e6040518563ffffffff1660e01b81526004016111f5949392919061409e565b600060405180830381600087803b15801561120f57600080fd5b505af1158015611223573d6000803e3d6000fd5b505050508989600301600082825461123b91906140f6565b92505081905550600089600301540361159857600860008c815260200190815260200160002060008d73ffffffffffffffffffffffffffffffffffffffff1673ffffffffffffffffffffffffffffffffffffffff16815260200190815260200160002060008082016000905560018201600090556002820160006101000a81549060ff021916905560038201600090556004820160006101000a81549073ffffffffffffffffffffffffffffffffffffffff02191690556005820160006101000a81549073ffffffffffffffffffffffffffffffffffffffff02191690556005820160146101000a81549060ff021916905550506000600660008d8152602001908152602001600020905060005b81805490508110156114c6578d73ffffffffffffffffffffffffffffffffffffffff1682828154811061137f5761137e613964565b5b9060005260206000200160009054906101000a900473ffffffffffffffffffffffffffffffffffffffff1673ffffffffffffffffffffffffffffffffffffffff16036114b95781600183805490506113d791906140f6565b815481106113e8576113e7613964565b5b9060005260206000200160009054906101000a900473ffffffffffffffffffffffffffffffffffffffff1682828154811061142657611425613964565b5b9060005260206000200160006101000a81548173ffffffffffffffffffffffffffffffffffffffff021916908373ffffffffffffffffffffffffffffffffffffffff1602179055508180548061147f5761147e61412a565b5b6001900381819060005260206000200160006101000a81549073ffffffffffffffffffffffffffffffffffffffff021916905590556114c6565b8080600101915050611349565b5060008180549050036115965760005b600580549050811015611594578c600582815481106114f8576114f7613964565b5b906000526020600020015403611587576005600160058054905061151c91906140f6565b8154811061152d5761152c613964565b5b90600052602060002001546005828154811061154c5761154b613964565b5b9060005260206000200181905550600580548061156c5761156b61412a565b5b60019003818190600052602060002001600090559055611594565b80806001019150506114d6565b505b505b7f8562eb94748e30bb0071e932744ce902b460c683474fcb3bfd567ffa16b1afb28b8a60050160009054906101000a900473ffffffffffffffffffffffffffffffffffffffff16338a6040516115f19493929190614159565b60405180910390a1505050505050505050505050565b6006602052816000526040600020818154811061162357600080fd5b906000526020600020016000915091509054906101000a900473ffffffffffffffffffffffffffffffffffffffff1681565b61165d612d7e565b6116676000612eb6565b565b60076020528060005260406000206000915090508060000160009054906101000a900460ff16908060000160019054906101000a900473ffffffffffffffffffffffffffffffffffffffff16905082565b60006008600084815260200190815260200160002060008373ffffffffffffffffffffffffffffffffffffffff1673ffffffffffffffffffffffffffffffffffffffff1681526020019081526020016000206040518060e001604052908160008201548152602001600182015481526020016002820160009054906101000a900460ff1660ff1660ff168152602001600382015481526020016004820160009054906101000a900473ffffffffffffffffffffffffffffffffffffffff1673ffffffffffffffffffffffffffffffffffffffff1673ffffffffffffffffffffffffffffffffffffffff1681526020016005820160009054906101000a900473ffffffffffffffffffffffffffffffffffffffff1673ffffffffffffffffffffffffffffffffffffffff1673ffffffffffffffffffffffffffffffffffffffff1681526020016005820160149054906101000a900460ff1615151515815250509050600073ffffffffffffffffffffffffffffffffffffffff16816080015173ffffffffffffffffffffffffffffffffffffffff160361188e576040517f08c379a000000000000000000000000000000000000000000000000000000000815260040161188590613a9b565b60405180910390fd5b6000600360009054906101000a900473ffffffffffffffffffffffffffffffffffffffff1673ffffffffffffffffffffffffffffffffffffffff1662fdd58e33866040518363ffffffff1660e01b81526004016118ec929190613c69565b602060405180830381865afa158015611909573d6000803e3d6000fd5b505050506040513d601f19601f8201168201806040525081019061192d9190613ca7565b1461196d576040517f08c379a0000000000000000000000000000000000000000000000000000000008152600401611964906141ea565b60405180910390fd5b60096000848152602001908152602001600020339080600181540180825580915050600190039060005260206000200160009091909190916101000a81548173ffffffffffffffffffffffffffffffffffffffff021916908373ffffffffffffffffffffffffffffffffffffffff1602179055507f74ad6cf22169acab706b2338b011760858057042cba962da2425a19b301e7f528333604051611a1292919061420a565b60405180910390a1505050565b60008060009054906101000a900473ffffffffffffffffffffffffffffffffffffffff16905090565b6008602052816000526040600020602052806000526040600020600091509150508060000154908060010154908060020160009054906101000a900460ff16908060030154908060040160009054906101000a900473ffffffffffffffffffffffffffffffffffffffff16908060050160009054906101000a900473ffffffffffffffffffffffffffffffffffffffff16908060050160149054906101000a900460ff16905087565b3373ffffffffffffffffffffffffffffffffffffffff166008600083815260200190815260200160002060003373ffffffffffffffffffffffffffffffffffffffff1673ffffffffffffffffffffffffffffffffffffffff16815260200190815260200160002060050160009054906101000a900473ffffffffffffffffffffffffffffffffffffffff1673ffffffffffffffffffffffffffffffffffffffff1614611bd2576040517f08c379a0000000000000000000000000000000000000000000000000000000008152600401611bc99061427f565b60405180910390fd5b6008600082815260200190815260200160002060003373ffffffffffffffffffffffffffffffffffffffff1673ffffffffffffffffffffffffffffffffffffffff16815260200190815260200160002060050160149054906101000a900460ff16611c72576040517f08c379a0000000000000000000000000000000000000000000000000000000008152600401611c69906142eb565b60405180910390fd5b6008600082815260200190815260200160002060003373ffffffffffffffffffffffffffffffffffffffff1673ffffffffffffffffffffffffffffffffffffffff16815260200190815260200160002060008082016000905560018201600090556002820160006101000a81549060ff021916905560038201600090556004820160006101000a81549073ffffffffffffffffffffffffffffffffffffffff02191690556005820160006101000a81549073ffffffffffffffffffffffffffffffffffffffff02191690556005820160146101000a81549060ff02191690555050600060066000838152602001908152602001600020905060005b8180549050811015611eea573373ffffffffffffffffffffffffffffffffffffffff16828281548110611da357611da2613964565b5b9060005260206000200160009054906101000a900473ffffffffffffffffffffffffffffffffffffffff1673ffffffffffffffffffffffffffffffffffffffff1603611edd578160018380549050611dfb91906140f6565b81548110611e0c57611e0b613964565b5b9060005260206000200160009054906101000a900473ffffffffffffffffffffffffffffffffffffffff16828281548110611e4a57611e49613964565b5b9060005260206000200160006101000a81548173ffffffffffffffffffffffffffffffffffffffff021916908373ffffffffffffffffffffffffffffffffffffffff16021790555081805480611ea357611ea261412a565b5b6001900381819060005260206000200160006101000a81549073ffffffffffffffffffffffffffffffffffffffff02191690559055611eea565b8080600101915050611d6d565b506000818054905003611fba5760005b600580549050811015611fb8578260058281548110611f1c57611f1b613964565b5b906000526020600020015403611fab5760056001600580549050611f4091906140f6565b81548110611f5157611f50613964565b5b906000526020600020015460058281548110611f7057611f6f613964565b5b90600052602060002001819055506005805480611f9057611f8f61412a565b5b60019003818190600052602060002001600090559055611fb8565b8080600101915050611efa565b505b7fb765e971c123cbdac007f49987b1aac638149f995ba62034fc509604cac5f01e8233604051611feb92919061420a565b60405180910390a15050565b600a6020528060005260406000206000915090505481565b6000600360009054906101000a900473ffffffffffffffffffffffffffffffffffffffff1673ffffffffffffffffffffffffffffffffffffffff1662fdd58e33866040518363ffffffff1660e01b815260040161206d929190613c69565b602060405180830381865afa15801561208a573d6000803e3d6000fd5b505050506040513d601f19601f820116820180604052508101906120ae9190613ca7565b116120ee576040517f08c379a00000000000000000000000000000000000000000000000000000000081526004016120e590614357565b60405180910390fd5b80600360009054906101000a900473ffffffffffffffffffffffffffffffffffffffff1673ffffffffffffffffffffffffffffffffffffffff1662fdd58e33866040518363ffffffff1660e01b815260040161214b929190613c69565b602060405180830381865afa158015612168573d6000803e3d6000fd5b505050506040513d601f19601f8201168201806040525081019061218c9190613ca7565b10156121cd576040517f08c379a00000000000000000000000000000000000000000000000000000000081526004016121c4906143c3565b60405180910390fd5b6008600084815260200190815260200160002060003373ffffffffffffffffffffffffffffffffffffffff1673ffffffffffffffffffffffffffffffffffffffff16815260200190815260200160002060050160149054906101000a900460ff161561226e576040517f08c379a00000000000000000000000000000000000000000000000000000000081526004016122659061442f565b60405180910390fd5b6000600760008581526020019081526020016000206040518060400160405290816000820160009054906101000a900460ff1660ff1660ff1681526020016000820160019054906101000a900473ffffffffffffffffffffffffffffffffffffffff1673ffffffffffffffffffffffffffffffffffffffff1673ffffffffffffffffffffffffffffffffffffffff16815250509050600060066000868152602001908152602001600020805490500361234b5760058490806001815401808255809150506001900390600052602060002001600090919091909150555b60066000858152602001908152602001600020339080600181540180825580915050600190039060005260206000200160009091909190916101000a81548173ffffffffffffffffffffffffffffffffffffffff021916908373ffffffffffffffffffffffffffffffffffffffff1602179055506040518060e00160405280858152602001848152602001826000015160ff168152602001838152602001826020015173ffffffffffffffffffffffffffffffffffffffff1681526020013373ffffffffffffffffffffffffffffffffffffffff168152602001600115158152506008600086815260200190815260200160002060003373ffffffffffffffffffffffffffffffffffffffff1673ffffffffffffffffffffffffffffffffffffffff168152602001908152602001600020600082015181600001556020820151816001015560408201518160020160006101000a81548160ff021916908360ff1602179055506060820151816003015560808201518160040160006101000a81548173ffffffffffffffffffffffffffffffffffffffff021916908373ffffffffffffffffffffffffffffffffffffffff16021790555060a08201518160050160006101000a81548173ffffffffffffffffffffffffffffffffffffffff021916908373ffffffffffffffffffffffffffffffffffffffff16021790555060c08201518160050160146101000a81548160ff0219169083151502179055509050507f36e94395fafcb0d2a9bcfcdd5cef807ab52a1f4382906992ebdc18de5f1472c4843385856040516125a1949392919061444f565b60405180910390a150505050565b600960205281600052604060002081815481106125cb57600080fd5b906000526020600020016000915091509054906101000a900473ffffffffffffffffffffffffffffffffffffffff1681565b6005818154811061260d57600080fd5b906000526020600020016000915090505481565b600b6020528060005260406000206000915054906101000a900460ff1681565b600160008154612650906139f6565b9190508190555060006001549050600360009054906101000a900473ffffffffffffffffffffffffffffffffffffffff1673ffffffffffffffffffffffffffffffffffffffff1663bb7fde71338386896040518563ffffffff1660e01b81526004016126bf9493929190614502565b6020604051808303816000875af11580156126de573d6000803e3d6000fd5b505050506040513d601f19601f820116820180604052508101906127029190613ca7565b5060405180604001604052808560ff1681526020013373ffffffffffffffffffffffffffffffffffffffff168152506007600083815260200190815260200160002060008201518160000160006101000a81548160ff021916908360ff16021790555060208201518160000160016101000a81548173ffffffffffffffffffffffffffffffffffffffff021916908373ffffffffffffffffffffffffffffffffffffffff1602179055509050508115612cb3576000600360009054906101000a900473ffffffffffffffffffffffffffffffffffffffff1673ffffffffffffffffffffffffffffffffffffffff1662fdd58e33846040518363ffffffff1660e01b8152600401612813929190613c69565b602060405180830381865afa158015612830573d6000803e3d6000fd5b505050506040513d601f19601f820116820180604052508101906128549190613ca7565b11612894576040517f08c379a000000000000000000000000000000000000000000000000000000000815260040161288b90614357565b60405180910390fd5b82600360009054906101000a900473ffffffffffffffffffffffffffffffffffffffff1673ffffffffffffffffffffffffffffffffffffffff1662fdd58e33846040518363ffffffff1660e01b81526004016128f1929190613c69565b602060405180830381865afa15801561290e573d6000803e3d6000fd5b505050506040513d601f19601f820116820180604052508101906129329190613ca7565b1015612973576040517f08c379a000000000000000000000000000000000000000000000000000000000815260040161296a906143c3565b60405180910390fd5b6008600082815260200190815260200160002060003373ffffffffffffffffffffffffffffffffffffffff1673ffffffffffffffffffffffffffffffffffffffff16815260200190815260200160002060050160149054906101000a900460ff1615612a14576040517f08c379a0000000000000000000000000000000000000000000000000000000008152600401612a0b9061442f565b60405180910390fd5b6000600660008381526020019081526020016000208054905003612a5c5760058190806001815401808255809150506001900390600052602060002001600090919091909150555b60066000828152602001908152602001600020339080600181540180825580915050600190039060005260206000200160009091909190916101000a81548173ffffffffffffffffffffffffffffffffffffffff021916908373ffffffffffffffffffffffffffffffffffffffff1602179055506040518060e001604052808281526020018781526020018560ff1681526020018481526020013373ffffffffffffffffffffffffffffffffffffffff1681526020013373ffffffffffffffffffffffffffffffffffffffff168152602001600115158152506008600083815260200190815260200160002060003373ffffffffffffffffffffffffffffffffffffffff1673ffffffffffffffffffffffffffffffffffffffff168152602001908152602001600020600082015181600001556020820151816001015560408201518160020160006101000a81548160ff021916908360ff1602179055506060820151816003015560808201518160040160006101000a81548173ffffffffffffffffffffffffffffffffffffffff021916908373ffffffffffffffffffffffffffffffffffffffff16021790555060a08201518160050160006101000a81548173ffffffffffffffffffffffffffffffffffffffff021916908373ffffffffffffffffffffffffffffffffffffffff16021790555060c08201518160050160146101000a81548160ff0219169083151502179055509050507f36e94395fafcb0d2a9bcfcdd5cef807ab52a1f4382906992ebdc18de5f1472c481338886604051612caa949392919061444f565b60405180910390a15b7f82dab408985c3d2faefd82b084de54234c7e481435f0cd9fcee456241d97e87d81338787604051612ce8949392919061457f565b60405180910390a1505050505050565b612d00612d7e565b600073ffffffffffffffffffffffffffffffffffffffff168173ffffffffffffffffffffffffffffffffffffffff1603612d725760006040517f1e4fbdf7000000000000000000000000000000000000000000000000000000008152600401612d69919061356c565b60405180910390fd5b612d7b81612eb6565b50565b612d86612f7a565b73ffffffffffffffffffffffffffffffffffffffff16612da4611a1f565b73ffffffffffffffffffffffffffffffffffffffff1614612e0357612dc7612f7a565b6040517f118cdaa7000000000000000000000000000000000000000000000000000000008152600401612dfa919061356c565b60405180910390fd5b565b60008060008403612e1d576001600091509150612e51565b6000838502905083858281612e3557612e34613b74565b5b0414612e48576000809250925050612e51565b60018192509250505b9250929050565b60008060008303612e6f5760008091509150612e87565b6001838581612e8157612e80613b74565b5b04915091505b9250929050565b60008083831115612ea55760008091509150612eaf565b6001838503915091505b9250929050565b60008060009054906101000a900473ffffffffffffffffffffffffffffffffffffffff169050816000806101000a81548173ffffffffffffffffffffffffffffffffffffffff021916908373ffffffffffffffffffffffffffffffffffffffff1602179055508173ffffffffffffffffffffffffffffffffffffffff168173ffffffffffffffffffffffffffffffffffffffff167f8be0079c531659141344cd1fd0a4f28419497f9722a3daafe3b4186f6b6457e060405160405180910390a35050565b600033905090565b6040518060e001604052806000815260200160008152602001600060ff16815260200160008152602001600073ffffffffffffffffffffffffffffffffffffffff168152602001600073ffffffffffffffffffffffffffffffffffffffff1681526020016000151581525090565b600081519050919050565b600082825260208201905092915050565b6000819050602082019050919050565b6000819050919050565b61302f8161301c565b82525050565b60006130418383613026565b60208301905092915050565b6000602082019050919050565b600061306582612ff0565b61306f8185612ffb565b935061307a8361300c565b8060005b838110156130ab5781516130928882613035565b975061309d8361304d565b92505060018101905061307e565b5085935050505092915050565b600081519050919050565b600082825260208201905092915050565b6000819050602082019050919050565b600073ffffffffffffffffffffffffffffffffffffffff82169050919050565b600061310f826130e4565b9050919050565b61311f81613104565b82525050565b60006131318383613116565b60208301905092915050565b6000602082019050919050565b6000613155826130b8565b61315f81856130c3565b935061316a836130d4565b8060005b8381101561319b5781516131828882613125565b975061318d8361313d565b92505060018101905061316e565b5085935050505092915050565b600081519050919050565b600082825260208201905092915050565b6000819050602082019050919050565b600060ff82169050919050565b6131ea816131d4565b82525050565b60008115159050919050565b613205816131f0565b82525050565b60e0820160008201516132216000850182613026565b5060208201516132346020850182613026565b50604082015161324760408501826131e1565b50606082015161325a6060850182613026565b50608082015161326d6080850182613116565b5060a082015161328060a0850182613116565b5060c082015161329360c08501826131fc565b50505050565b60006132a5838361320b565b60e08301905092915050565b6000602082019050919050565b60006132c9826131a8565b6132d381856131b3565b93506132de836131c4565b8060005b8381101561330f5781516132f68882613299565b9750613301836132b1565b9250506001810190506132e2565b5085935050505092915050565b60006060820190508181036000830152613336818661305a565b9050818103602083015261334a818561314a565b9050818103604083015261335e81846132be565b9050949350505050565b6000819050919050565b600061338d613388613383846130e4565b613368565b6130e4565b9050919050565b600061339f82613372565b9050919050565b60006133b182613394565b9050919050565b6133c1816133a6565b82525050565b60006020820190506133dc60008301846133b8565b92915050565b6000604051905090565b600080fd5b600080fd5b6133ff8161301c565b811461340a57600080fd5b50565b60008135905061341c816133f6565b92915050565b61342b81613104565b811461343657600080fd5b50565b60008135905061344881613422565b92915050565b60008060408385031215613465576134646133ec565b5b60006134738582860161340d565b925050602061348485828601613439565b9150509250929050565b600061349982613394565b9050919050565b6134a98161348e565b82525050565b60006020820190506134c460008301846134a0565b92915050565b6000806000606084860312156134e3576134e26133ec565b5b60006134f186828701613439565b93505060206135028682870161340d565b92505060406135138682870161340d565b9150509250925092565b60008060408385031215613534576135336133ec565b5b60006135428582860161340d565b92505060206135538582860161340d565b9150509250929050565b61356681613104565b82525050565b6000602082019050613581600083018461355d565b92915050565b60006020828403121561359d5761359c6133ec565b5b60006135ab8482850161340d565b91505092915050565b6135bd816131d4565b82525050565b60006040820190506135d860008301856135b4565b6135e5602083018461355d565b9392505050565b6135f58161301c565b82525050565b613604816131f0565b82525050565b600060e08201905061361f600083018a6135ec565b61362c60208301896135ec565b61363960408301886135b4565b61364660608301876135ec565b613653608083018661355d565b61366060a083018561355d565b61366d60c08301846135fb565b98975050505050505050565b600060208201905061368e60008301846135ec565b92915050565b6000806000606084860312156136ad576136ac6133ec565b5b60006136bb8682870161340d565b93505060206136cc8682870161340d565b92505060406136dd8682870161340d565b9150509250925092565b60006020820190506136fc60008301846135fb565b92915050565b600080fd5b600080fd5b6000601f19601f8301169050919050565b7f4e487b7100000000000000000000000000000000000000000000000000000000600052604160045260246000fd5b6137558261370c565b810181811067ffffffffffffffff821117156137745761377361371d565b5b80604052505050565b60006137876133e2565b9050613793828261374c565b919050565b600067ffffffffffffffff8211156137b3576137b261371d565b5b6137bc8261370c565b9050602081019050919050565b82818337600083830152505050565b60006137eb6137e684613798565b61377d565b90508281526020810184848401111561380757613806613707565b5b6138128482856137c9565b509392505050565b600082601f83011261382f5761382e613702565b5b813561383f8482602086016137d8565b91505092915050565b613851816131d4565b811461385c57600080fd5b50565b60008135905061386e81613848565b92915050565b61387d816131f0565b811461388857600080fd5b50565b60008135905061389a81613874565b92915050565b600080600080600060a086880312156138bc576138bb6133ec565b5b60006138ca8882890161340d565b955050602086013567ffffffffffffffff8111156138eb576138ea6133f1565b5b6138f78882890161381a565b94505060406139088882890161385f565b93505060606139198882890161340d565b925050608061392a8882890161388b565b9150509295509295909350565b60006020828403121561394d5761394c6133ec565b5b600061395b84828501613439565b91505092915050565b7f4e487b7100000000000000000000000000000000000000000000000000000000600052603260045260246000fd5b7f4e487b7100000000000000000000000000000000000000000000000000000000600052601160045260246000fd5b60006139cd8261301c565b91506139d88361301c565b92508282019050808211156139f0576139ef613993565b5b92915050565b6000613a018261301c565b91507fffffffffffffffffffffffffffffffffffffffffffffffffffffffffffffffff8203613a3357613a32613993565b5b600182019050919050565b600082825260208201905092915050565b7f4e465420646f6573206e6f742065786973740000000000000000000000000000600082015250565b6000613a85601283613a3e565b9150613a9082613a4f565b602082019050919050565b60006020820190508181036000830152613ab481613a78565b9050919050565b7f526166666c6520616c726561647920636f6d706c657465640000000000000000600082015250565b6000613af1601883613a3e565b9150613afc82613abb565b602082019050919050565b60006020820190508181036000830152613b2081613ae4565b9050919050565b6000819050919050565b613b42613b3d8261301c565b613b27565b82525050565b6000613b548285613b31565b602082019150613b648284613b31565b6020820191508190509392505050565b7f4e487b7100000000000000000000000000000000000000000000000000000000600052601260045260246000fd5b6000613bae8261301c565b9150613bb98361301c565b925082613bc957613bc8613b74565b5b828206905092915050565b6000604082019050613be960008301856135ec565b613bf660208301846135ec565b9392505050565b7f4e4654206973206e6f74206c697374656420666f722073616c65000000000000600082015250565b6000613c33601a83613a3e565b9150613c3e82613bfd565b602082019050919050565b60006020820190508181036000830152613c6281613c26565b9050919050565b6000604082019050613c7e600083018561355d565b613c8b60208301846135ec565b9392505050565b600081519050613ca1816133f6565b92915050565b600060208284031215613cbd57613cbc6133ec565b5b6000613ccb84828501613c92565b91505092915050565b7f53656c6c657220646f6573206e6f74206861766520656e6f75676820746f6b6560008201527f6e73000000000000000000000000000000000000000000000000000000000000602082015250565b6000613d30602283613a3e565b9150613d3b82613cd4565b604082019050919050565b60006020820190508181036000830152613d5f81613d23565b9050919050565b7f4d756c7469706c69636174696f6e206f766572666c6f77000000000000000000600082015250565b6000613d9c601783613a3e565b9150613da782613d66565b602082019050919050565b60006020820190508181036000830152613dcb81613d8f565b9050919050565b7f496e73756666696369656e7420746f6b656e2062616c616e6365000000000000600082015250565b6000613e08601a83613a3e565b9150613e1382613dd2565b602082019050919050565b60006020820190508181036000830152613e3781613dfb565b9050919050565b7f4469766973696f6e206f766572666c6f77000000000000000000000000000000600082015250565b6000613e74601183613a3e565b9150613e7f82613e3e565b602082019050919050565b60006020820190508181036000830152613ea381613e67565b9050919050565b7f5375627472616374696f6e206f766572666c6f77000000000000000000000000600082015250565b6000613ee0601483613a3e565b9150613eeb82613eaa565b602082019050919050565b60006020820190508181036000830152613f0f81613ed3565b9050919050565b6000606082019050613f2b600083018661355d565b613f38602083018561355d565b613f4560408301846135ec565b949350505050565b600081519050613f5c81613874565b92915050565b600060208284031215613f7857613f776133ec565b5b6000613f8684828501613f4d565b91505092915050565b7f526f79616c7479207472616e73666572206661696c6564000000000000000000600082015250565b6000613fc5601783613a3e565b9150613fd082613f8f565b602082019050919050565b60006020820190508181036000830152613ff481613fb8565b9050919050565b7f5061796d656e74207472616e73666572206661696c6564000000000000000000600082015250565b6000614031601783613a3e565b915061403c82613ffb565b602082019050919050565b6000602082019050818103600083015261406081614024565b9050919050565b600082825260208201905092915050565b50565b6000614088600083614067565b915061409382614078565b600082019050919050565b600060a0820190506140b3600083018761355d565b6140c0602083018661355d565b6140cd60408301856135ec565b6140da60608301846135ec565b81810360808301526140eb8161407b565b905095945050505050565b60006141018261301c565b915061410c8361301c565b925082820390508181111561412457614123613993565b5b92915050565b7f4e487b7100000000000000000000000000000000000000000000000000000000600052603160045260246000fd5b600060808201905061416e60008301876135ec565b61417b602083018661355d565b614188604083018561355d565b61419560608301846135ec565b95945050505050565b7f596f7520616c7265616479206f776e2074686973204e46540000000000000000600082015250565b60006141d4601883613a3e565b91506141df8261419e565b602082019050919050565b60006020820190508181036000830152614203816141c7565b9050919050565b600060408201905061421f60008301856135ec565b61422c602083018461355d565b9392505050565b7f596f7520617265206e6f74207468652073656c6c657200000000000000000000600082015250565b6000614269601683613a3e565b915061427482614233565b602082019050919050565b600060208201905081810360008301526142988161425c565b9050919050565b7f4e4654206973206e6f74206c6973746564000000000000000000000000000000600082015250565b60006142d5601183613a3e565b91506142e08261429f565b602082019050919050565b60006020820190508181036000830152614304816142c8565b9050919050565b7f596f7520646f6e2774206f776e2074686973204e465400000000000000000000600082015250565b6000614341601683613a3e565b915061434c8261430b565b602082019050919050565b6000602082019050818103600083015261437081614334565b9050919050565b7f596f7520646f6e277420686176652074686973206d756368204e465473000000600082015250565b60006143ad601d83613a3e565b91506143b882614377565b602082019050919050565b600060208201905081810360008301526143dc816143a0565b9050919050565b7f4e465420697320616c7265616479206c69737465640000000000000000000000600082015250565b6000614419601583613a3e565b9150614424826143e3565b602082019050919050565b600060208201905081810360008301526144488161440c565b9050919050565b600060808201905061446460008301876135ec565b614471602083018661355d565b61447e60408301856135ec565b61448b60608301846135ec565b95945050505050565b600081519050919050565b60005b838110156144bd5780820151818401526020810190506144a2565b60008484015250505050565b60006144d482614494565b6144de8185613a3e565b93506144ee81856020860161449f565b6144f78161370c565b840191505092915050565b6000608082019050614517600083018761355d565b61452460208301866135ec565b61453160408301856135ec565b818103606083015261454381846144c9565b905095945050505050565b600061456961456461455f846131d4565b613368565b61301c565b9050919050565b6145798161454e565b82525050565b600060808201905061459460008301876135ec565b6145a1602083018661355d565b81810360408301526145b381856144c9565b90506145c26060830184614570565b9594505050505056fea26469706673582212207fb7a0a55a336de27ef0f2c325804eb37e70e33dbdaa4d30a35b97b71167961264736f6c634300081c0033"
}