{
  "_format": "hh-sol-artifact-1",
  "contractName": "NebulaX",
  "sourceName": "contracts/NebulaX.sol",
  "abi": [
    {
      "inputs": [
        {
          "internalType": "address",
          "name": "_nebToken",
          "type": "address"
        },
        {
          "internalType": "address",
          "name": "_nebulaXNFT",
          "type": "address"
        }
      ],
      "stateMutability": "nonpayable",
      "type": "constructor"
    },
    {
      "inputs": [
        {
          "internalType": "address",
          "name": "owner",
          "type": "address"
        }
      ],
      "name": "OwnableInvalidOwner",
      "type": "error"
    },
    {
      "inputs": [
        {
          "internalType": "address",
          "name": "account",
          "type": "address"
        }
      ],
      "name": "OwnableUnauthorizedAccount",
      "type": "error"
    },
    {
      "anonymous": false,
      "inputs": [
        {
          "indexed": false,
          "internalType": "uint256",
          "name": "id",
          "type": "uint256"
        },
        {
          "indexed": false,
          "internalType": "address",
          "name": "creator",
          "type": "address"
        },
        {
          "indexed": false,
          "internalType": "string",
          "name": "uri",
          "type": "string"
        },
        {
          "indexed": false,
          "internalType": "uint256",
          "name": "royalty",
          "type": "uint256"
        }
      ],
      "name": "NFTCreated",
      "type": "event"
    },
    {
      "anonymous": false,
      "inputs": [
        {
          "indexed": false,
          "internalType": "uint256",
          "name": "tokenId",
          "type": "uint256"
        },
        {
          "indexed": false,
          "internalType": "address",
          "name": "seller",
          "type": "address"
        },
        {
          "indexed": false,
          "internalType": "uint256",
          "name": "price",
          "type": "uint256"
        },
        {
          "indexed": false,
          "internalType": "uint256",
          "name": "amount",
          "type": "uint256"
        }
      ],
      "name": "NFTListed",
      "type": "event"
    },
    {
      "anonymous": false,
      "inputs": [
        {
          "indexed": false,
          "internalType": "uint256",
          "name": "tokenId",
          "type": "uint256"
        },
        {
          "indexed": false,
          "internalType": "address",
          "name": "seller",
          "type": "address"
        },
        {
          "indexed": false,
          "internalType": "address",
          "name": "buyer",
          "type": "address"
        },
        {
          "indexed": false,
          "internalType": "uint256",
          "name": "price",
          "type": "uint256"
        }
      ],
      "name": "NFTSold",
      "type": "event"
    },
    {
      "anonymous": false,
      "inputs": [
        {
          "indexed": false,
          "internalType": "uint256",
          "name": "tokenId",
          "type": "uint256"
        },
        {
          "indexed": false,
          "internalType": "address",
          "name": "seller",
          "type": "address"
        }
      ],
      "name": "NFTUnlisted",
      "type": "event"
    },
    {
      "anonymous": false,
      "inputs": [
        {
          "indexed": true,
          "internalType": "address",
          "name": "previousOwner",
          "type": "address"
        },
        {
          "indexed": true,
          "internalType": "address",
          "name": "newOwner",
          "type": "address"
        }
      ],
      "name": "OwnershipTransferred",
      "type": "event"
    },
    {
      "inputs": [
        {
          "internalType": "uint256",
          "name": "_price",
          "type": "uint256"
        },
        {
          "internalType": "string",
          "name": "_uri",
          "type": "string"
        },
        {
          "internalType": "uint8",
          "name": "_royalty",
          "type": "uint8"
        },
        {
          "internalType": "uint256",
          "name": "_amount",
          "type": "uint256"
        },
        {
          "internalType": "bool",
          "name": "_list",
          "type": "bool"
        }
      ],
      "name": "CreateNFT",
      "outputs": [],
      "stateMutability": "nonpayable",
      "type": "function"
    },
    {
      "inputs": [
        {
          "internalType": "uint256",
          "name": "",
          "type": "uint256"
        }
      ],
      "name": "Creators",
      "outputs": [
        {
          "internalType": "uint8",
          "name": "royalty",
          "type": "uint8"
        },
        {
          "internalType": "address",
          "name": "creator",
          "type": "address"
        }
      ],
      "stateMutability": "view",
      "type": "function"
    },
    {
      "inputs": [
        {
          "internalType": "address",
          "name": "_seller",
          "type": "address"
        },
        {
          "internalType": "uint256",
          "name": "_tokenId",
          "type": "uint256"
        },
        {
          "internalType": "uint256",
          "name": "_amount",
          "type": "uint256"
        }
      ],
      "name": "buyNFT",
      "outputs": [],
      "stateMutability": "nonpayable",
      "type": "function"
    },
    {
      "inputs": [],
      "name": "getListedNFTs",
      "outputs": [
        {
          "internalType": "uint256[]",
          "name": "",
          "type": "uint256[]"
        },
        {
          "components": [
            {
              "internalType": "uint256",
              "name": "price",
              "type": "uint256"
            },
            {
              "internalType": "uint8",
              "name": "royalty",
              "type": "uint8"
            },
            {
              "internalType": "uint256",
              "name": "amount",
              "type": "uint256"
            },
            {
              "internalType": "address",
              "name": "creator",
              "type": "address"
            },
            {
              "internalType": "address",
              "name": "seller",
              "type": "address"
            },
            {
              "internalType": "bool",
              "name": "isListed",
              "type": "bool"
            }
          ],
          "internalType": "struct NebulaX.Listing[]",
          "name": "",
          "type": "tuple[]"
        }
      ],
      "stateMutability": "view",
      "type": "function"
    },
    {
      "inputs": [
        {
          "internalType": "uint256",
          "name": "_tokenId",
          "type": "uint256"
        },
        {
          "internalType": "uint256",
          "name": "_price",
          "type": "uint256"
        },
        {
          "internalType": "uint256",
          "name": "_amount",
          "type": "uint256"
        }
      ],
      "name": "listNFT",
      "outputs": [],
      "stateMutability": "nonpayable",
      "type": "function"
    },
    {
      "inputs": [
        {
          "internalType": "address",
          "name": "",
          "type": "address"
        },
        {
          "internalType": "uint256",
          "name": "",
          "type": "uint256"
        }
      ],
      "name": "listings",
      "outputs": [
        {
          "internalType": "uint256",
          "name": "price",
          "type": "uint256"
        },
        {
          "internalType": "uint8",
          "name": "royalty",
          "type": "uint8"
        },
        {
          "internalType": "uint256",
          "name": "amount",
          "type": "uint256"
        },
        {
          "internalType": "address",
          "name": "creator",
          "type": "address"
        },
        {
          "internalType": "address",
          "name": "seller",
          "type": "address"
        },
        {
          "internalType": "bool",
          "name": "isListed",
          "type": "bool"
        }
      ],
      "stateMutability": "view",
      "type": "function"
    },
    {
      "inputs": [],
      "name": "nebToken",
      "outputs": [
        {
          "internalType": "contract IERC20",
          "name": "",
          "type": "address"
        }
      ],
      "stateMutability": "view",
      "type": "function"
    },
    {
      "inputs": [],
      "name": "nebulaXNFT",
      "outputs": [
        {
          "internalType": "contract IERC1155",
          "name": "",
          "type": "address"
        }
      ],
      "stateMutability": "view",
      "type": "function"
    },
    {
      "inputs": [],
      "name": "owner",
      "outputs": [
        {
          "internalType": "address",
          "name": "",
          "type": "address"
        }
      ],
      "stateMutability": "view",
      "type": "function"
    },
    {
      "inputs": [],
      "name": "renounceOwnership",
      "outputs": [],
      "stateMutability": "nonpayable",
      "type": "function"
    },
    {
      "inputs": [
        {
          "internalType": "address",
          "name": "newOwner",
          "type": "address"
        }
      ],
      "name": "transferOwnership",
      "outputs": [],
      "stateMutability": "nonpayable",
      "type": "function"
    },
    {
      "inputs": [
        {
          "internalType": "uint256",
          "name": "_tokenId",
          "type": "uint256"
        }
      ],
      "name": "unListNFT",
      "outputs": [],
      "stateMutability": "nonpayable",
      "type": "function"
    }
  ],
  "bytecode": "0x608060405234801561001057600080fd5b506040516133cc3803806133cc83398181016040528101906100329190610265565b33600073ffffffffffffffffffffffffffffffffffffffff168173ffffffffffffffffffffffffffffffffffffffff16036100a55760006040517f1e4fbdf700000000000000000000000000000000000000000000000000000000815260040161009c91906102b4565b60405180910390fd5b6100b48161013e60201b60201c565b5081600460006101000a81548173ffffffffffffffffffffffffffffffffffffffff021916908373ffffffffffffffffffffffffffffffffffffffff16021790555080600360006101000a81548173ffffffffffffffffffffffffffffffffffffffff021916908373ffffffffffffffffffffffffffffffffffffffff16021790555050506102cf565b60008060009054906101000a900473ffffffffffffffffffffffffffffffffffffffff169050816000806101000a81548173ffffffffffffffffffffffffffffffffffffffff021916908373ffffffffffffffffffffffffffffffffffffffff1602179055508173ffffffffffffffffffffffffffffffffffffffff168173ffffffffffffffffffffffffffffffffffffffff167f8be0079c531659141344cd1fd0a4f28419497f9722a3daafe3b4186f6b6457e060405160405180910390a35050565b600080fd5b600073ffffffffffffffffffffffffffffffffffffffff82169050919050565b600061023282610207565b9050919050565b61024281610227565b811461024d57600080fd5b50565b60008151905061025f81610239565b92915050565b6000806040838503121561027c5761027b610202565b5b600061028a85828601610250565b925050602061029b85828601610250565b9150509250929050565b6102ae81610227565b82525050565b60006020820190506102c960008301846102a5565b92915050565b6130ee806102de6000396000f3fe608060405234801561001057600080fd5b50600436106100b35760003560e01c80637406e011116100715780637406e0111461016c5780638055ccaa1461018a5780638da5cb5b146101bb578063b0136c8d146101d9578063ee87f32b146101f5578063f2fde38b14610211576100b3565b806207df30146100b8578063012386f0146100ed5780630ca2f1681461010c578063428de2f91461012857806353da6f0114610146578063715018a614610162575b600080fd5b6100d260048036038101906100cd9190611f2e565b61022d565b6040516100e496959493929190611fc3565b60405180910390f35b6100f56102d0565b604051610103929190612239565b60405180910390f35b61012660048036038101906101219190612270565b61064f565b005b610130610878565b60405161013d91906122fc565b60405180910390f35b610160600480360381019061015b9190612317565b61089e565b005b61016a610ff6565b005b61017461100a565b604051610181919061238b565b60405180910390f35b6101a4600480360381019061019f9190612270565b611030565b6040516101b29291906123a6565b60405180910390f35b6101c3611081565b6040516101d091906123cf565b60405180910390f35b6101f360048036038101906101ee91906123ea565b6110aa565b005b61020f600480360381019061020a91906125db565b611594565b005b61022b60048036038101906102269190612672565b611b95565b005b6006602052816000526040600020602052806000526040600020600091509150508060000154908060010160009054906101000a900460ff16908060020154908060030160009054906101000a900473ffffffffffffffffffffffffffffffffffffffff16908060040160009054906101000a900473ffffffffffffffffffffffffffffffffffffffff16908060040160149054906101000a900460ff16905086565b60608060006002549050600080600190505b82811161037157600660003373ffffffffffffffffffffffffffffffffffffffff1673ffffffffffffffffffffffffffffffffffffffff168152602001908152602001600020600082815260200190815260200160002060040160149054906101000a900460ff161561035e57818061035a906126ce565b9250505b8080610369906126ce565b9150506102e2565b5060008167ffffffffffffffff81111561038e5761038d612458565b5b6040519080825280602002602001820160405280156103bc5781602001602082028036833780820191505090505b50905060008267ffffffffffffffff8111156103db576103da612458565b5b60405190808252806020026020018201604052801561041457816020015b610401611e1f565b8152602001906001900390816103f95790505b509050600080600190505b85811161063f57600660003373ffffffffffffffffffffffffffffffffffffffff1673ffffffffffffffffffffffffffffffffffffffff168152602001908152602001600020600082815260200190815260200160002060040160149054906101000a900460ff161561062c57808483815181106104a05761049f612716565b5b602002602001018181525050600660003373ffffffffffffffffffffffffffffffffffffffff1673ffffffffffffffffffffffffffffffffffffffff16815260200190815260200160002060008281526020019081526020016000206040518060c0016040529081600082015481526020016001820160009054906101000a900460ff1660ff1660ff168152602001600282015481526020016003820160009054906101000a900473ffffffffffffffffffffffffffffffffffffffff1673ffffffffffffffffffffffffffffffffffffffff1673ffffffffffffffffffffffffffffffffffffffff1681526020016004820160009054906101000a900473ffffffffffffffffffffffffffffffffffffffff1673ffffffffffffffffffffffffffffffffffffffff1673ffffffffffffffffffffffffffffffffffffffff1681526020016004820160149054906101000a900460ff16151515158152505083838151811061061257610611612716565b5b60200260200101819052508180610628906126ce565b9250505b8080610637906126ce565b91505061041f565b5082829650965050505050509091565b3373ffffffffffffffffffffffffffffffffffffffff16600660003373ffffffffffffffffffffffffffffffffffffffff1673ffffffffffffffffffffffffffffffffffffffff168152602001908152602001600020600083815260200190815260200160002060040160009054906101000a900473ffffffffffffffffffffffffffffffffffffffff1673ffffffffffffffffffffffffffffffffffffffff1614610730576040517f08c379a0000000000000000000000000000000000000000000000000000000008152600401610727906127a2565b60405180910390fd5b600660003373ffffffffffffffffffffffffffffffffffffffff1673ffffffffffffffffffffffffffffffffffffffff168152602001908152602001600020600082815260200190815260200160002060040160149054906101000a900460ff166107d0576040517f08c379a00000000000000000000000000000000000000000000000000000000081526004016107c79061280e565b60405180910390fd5b6000600660003373ffffffffffffffffffffffffffffffffffffffff1673ffffffffffffffffffffffffffffffffffffffff168152602001908152602001600020600083815260200190815260200160002060040160146101000a81548160ff0219169083151502179055507fb765e971c123cbdac007f49987b1aac638149f995ba62034fc509604cac5f01e813360405161086d92919061282e565b60405180910390a150565b600460009054906101000a900473ffffffffffffffffffffffffffffffffffffffff1681565b6000600660008573ffffffffffffffffffffffffffffffffffffffff1673ffffffffffffffffffffffffffffffffffffffff168152602001908152602001600020600084815260200190815260200160002090508060040160149054906101000a900460ff16610943576040517f08c379a000000000000000000000000000000000000000000000000000000000815260040161093a906128a3565b60405180910390fd5b81600360009054906101000a900473ffffffffffffffffffffffffffffffffffffffff1673ffffffffffffffffffffffffffffffffffffffff1662fdd58e8360040160009054906101000a900473ffffffffffffffffffffffffffffffffffffffff16866040518363ffffffff1660e01b81526004016109c49291906128c3565b602060405180830381865afa1580156109e1573d6000803e3d6000fd5b505050506040513d601f19601f82011682018060405250810190610a059190612901565b1015610a46576040517f08c379a0000000000000000000000000000000000000000000000000000000008152600401610a3d906129a0565b60405180910390fd5b600080610a57836000015485611c1b565b9150915081610a9b576040517f08c379a0000000000000000000000000000000000000000000000000000000008152600401610a9290612a0c565b60405180910390fd5b80600460009054906101000a900473ffffffffffffffffffffffffffffffffffffffff1673ffffffffffffffffffffffffffffffffffffffff166370a08231336040518263ffffffff1660e01b8152600401610af791906123cf565b602060405180830381865afa158015610b14573d6000803e3d6000fd5b505050506040513d601f19601f82011682018060405250810190610b389190612901565b1015610b79576040517f08c379a0000000000000000000000000000000000000000000000000000000008152600401610b7090612a78565b60405180910390fd5b600080610b9a838660010160009054906101000a900460ff1660ff16611c1b565b9150915081610bde576040517f08c379a0000000000000000000000000000000000000000000000000000000008152600401610bd590612a0c565b60405180910390fd5b600080610bec836064611c6e565b9150915081610c30576040517f08c379a0000000000000000000000000000000000000000000000000000000008152600401610c2790612ae4565b60405180910390fd5b600080610c3d8784611ca4565b9150915081610c81576040517f08c379a0000000000000000000000000000000000000000000000000000000008152600401610c7890612b50565b60405180910390fd5b600460009054906101000a900473ffffffffffffffffffffffffffffffffffffffff1673ffffffffffffffffffffffffffffffffffffffff166323b872dd338b60030160009054906101000a900473ffffffffffffffffffffffffffffffffffffffff16866040518463ffffffff1660e01b8152600401610d0493929190612b70565b6020604051808303816000875af1158015610d23573d6000803e3d6000fd5b505050506040513d601f19601f82011682018060405250810190610d479190612bbc565b610d86576040517f08c379a0000000000000000000000000000000000000000000000000000000008152600401610d7d90612c35565b60405180910390fd5b600460009054906101000a900473ffffffffffffffffffffffffffffffffffffffff1673ffffffffffffffffffffffffffffffffffffffff166323b872dd338b60040160009054906101000a900473ffffffffffffffffffffffffffffffffffffffff16846040518463ffffffff1660e01b8152600401610e0993929190612b70565b6020604051808303816000875af1158015610e28573d6000803e3d6000fd5b505050506040513d601f19601f82011682018060405250810190610e4c9190612bbc565b610e8b576040517f08c379a0000000000000000000000000000000000000000000000000000000008152600401610e8290612ca1565b60405180910390fd5b600360009054906101000a900473ffffffffffffffffffffffffffffffffffffffff1673ffffffffffffffffffffffffffffffffffffffff1663f242432a8a60040160009054906101000a900473ffffffffffffffffffffffffffffffffffffffff16338e8e6040518563ffffffff1660e01b8152600401610f109493929190612cf8565b600060405180830381600087803b158015610f2a57600080fd5b505af1158015610f3e573d6000803e3d6000fd5b5050505089896002016000828254610f569190612d50565b925050819055506000896002015403610f875760008960040160146101000a81548160ff0219169083151502179055505b7f8562eb94748e30bb0071e932744ce902b460c683474fcb3bfd567ffa16b1afb28b8a60040160009054906101000a900473ffffffffffffffffffffffffffffffffffffffff16338a604051610fe09493929190612d84565b60405180910390a1505050505050505050505050565b610ffe611ccc565b6110086000611d53565b565b600360009054906101000a900473ffffffffffffffffffffffffffffffffffffffff1681565b60056020528060005260406000206000915090508060000160009054906101000a900460ff16908060000160019054906101000a900473ffffffffffffffffffffffffffffffffffffffff16905082565b60008060009054906101000a900473ffffffffffffffffffffffffffffffffffffffff16905090565b6000600360009054906101000a900473ffffffffffffffffffffffffffffffffffffffff1673ffffffffffffffffffffffffffffffffffffffff1662fdd58e33866040518363ffffffff1660e01b81526004016111089291906128c3565b602060405180830381865afa158015611125573d6000803e3d6000fd5b505050506040513d601f19601f820116820180604052508101906111499190612901565b11611189576040517f08c379a000000000000000000000000000000000000000000000000000000000815260040161118090612e15565b60405180910390fd5b80600360009054906101000a900473ffffffffffffffffffffffffffffffffffffffff1673ffffffffffffffffffffffffffffffffffffffff1662fdd58e33866040518363ffffffff1660e01b81526004016111e69291906128c3565b602060405180830381865afa158015611203573d6000803e3d6000fd5b505050506040513d601f19601f820116820180604052508101906112279190612901565b1015611268576040517f08c379a000000000000000000000000000000000000000000000000000000000815260040161125f90612e81565b60405180910390fd5b600660003373ffffffffffffffffffffffffffffffffffffffff1673ffffffffffffffffffffffffffffffffffffffff168152602001908152602001600020600084815260200190815260200160002060040160149054906101000a900460ff1615611309576040517f08c379a000000000000000000000000000000000000000000000000000000000815260040161130090612eed565b60405180910390fd5b6000600560008581526020019081526020016000206040518060400160405290816000820160009054906101000a900460ff1660ff1660ff1681526020016000820160019054906101000a900473ffffffffffffffffffffffffffffffffffffffff1673ffffffffffffffffffffffffffffffffffffffff1673ffffffffffffffffffffffffffffffffffffffff168152505090506002600081546113ad906126ce565b919050819055506040518060c00160405280848152602001826000015160ff168152602001838152602001826020015173ffffffffffffffffffffffffffffffffffffffff1681526020013373ffffffffffffffffffffffffffffffffffffffff16815260200160011515815250600660003373ffffffffffffffffffffffffffffffffffffffff1673ffffffffffffffffffffffffffffffffffffffff16815260200190815260200160002060008681526020019081526020016000206000820151816000015560208201518160010160006101000a81548160ff021916908360ff1602179055506040820151816002015560608201518160030160006101000a81548173ffffffffffffffffffffffffffffffffffffffff021916908373ffffffffffffffffffffffffffffffffffffffff16021790555060808201518160040160006101000a81548173ffffffffffffffffffffffffffffffffffffffff021916908373ffffffffffffffffffffffffffffffffffffffff16021790555060a08201518160040160146101000a81548160ff0219169083151502179055509050507f36e94395fafcb0d2a9bcfcdd5cef807ab52a1f4382906992ebdc18de5f1472c4843385856040516115869493929190612f0d565b60405180910390a150505050565b6001600081546115a3906126ce565b9190508190555060006001549050600360009054906101000a900473ffffffffffffffffffffffffffffffffffffffff1673ffffffffffffffffffffffffffffffffffffffff1663bb7fde71338386896040518563ffffffff1660e01b81526004016116129493929190612fc0565b6020604051808303816000875af1158015611631573d6000803e3d6000fd5b505050506040513d601f19601f820116820180604052508101906116559190612901565b5060405180604001604052808560ff1681526020013373ffffffffffffffffffffffffffffffffffffffff168152506005600083815260200190815260200160002060008201518160000160006101000a81548160ff021916908360ff16021790555060208201518160000160016101000a81548173ffffffffffffffffffffffffffffffffffffffff021916908373ffffffffffffffffffffffffffffffffffffffff1602179055509050508115611b50576000600360009054906101000a900473ffffffffffffffffffffffffffffffffffffffff1673ffffffffffffffffffffffffffffffffffffffff1662fdd58e33846040518363ffffffff1660e01b81526004016117669291906128c3565b602060405180830381865afa158015611783573d6000803e3d6000fd5b505050506040513d601f19601f820116820180604052508101906117a79190612901565b116117e7576040517f08c379a00000000000000000000000000000000000000000000000000000000081526004016117de90612e15565b60405180910390fd5b82600360009054906101000a900473ffffffffffffffffffffffffffffffffffffffff1673ffffffffffffffffffffffffffffffffffffffff1662fdd58e33846040518363ffffffff1660e01b81526004016118449291906128c3565b602060405180830381865afa158015611861573d6000803e3d6000fd5b505050506040513d601f19601f820116820180604052508101906118859190612901565b10156118c6576040517f08c379a00000000000000000000000000000000000000000000000000000000081526004016118bd90612e81565b60405180910390fd5b600660003373ffffffffffffffffffffffffffffffffffffffff1673ffffffffffffffffffffffffffffffffffffffff168152602001908152602001600020600082815260200190815260200160002060040160149054906101000a900460ff1615611967576040517f08c379a000000000000000000000000000000000000000000000000000000000815260040161195e90612eed565b60405180910390fd5b600260008154611976906126ce565b919050819055506040518060c001604052808781526020018560ff1681526020018481526020013373ffffffffffffffffffffffffffffffffffffffff1681526020013373ffffffffffffffffffffffffffffffffffffffff16815260200160011515815250600660003373ffffffffffffffffffffffffffffffffffffffff1673ffffffffffffffffffffffffffffffffffffffff16815260200190815260200160002060008381526020019081526020016000206000820151816000015560208201518160010160006101000a81548160ff021916908360ff1602179055506040820151816002015560608201518160030160006101000a81548173ffffffffffffffffffffffffffffffffffffffff021916908373ffffffffffffffffffffffffffffffffffffffff16021790555060808201518160040160006101000a81548173ffffffffffffffffffffffffffffffffffffffff021916908373ffffffffffffffffffffffffffffffffffffffff16021790555060a08201518160040160146101000a81548160ff0219169083151502179055509050507f36e94395fafcb0d2a9bcfcdd5cef807ab52a1f4382906992ebdc18de5f1472c481338886604051611b479493929190612f0d565b60405180910390a15b7f82dab408985c3d2faefd82b084de54234c7e481435f0cd9fcee456241d97e87d81338787604051611b85949392919061303d565b60405180910390a1505050505050565b611b9d611ccc565b600073ffffffffffffffffffffffffffffffffffffffff168173ffffffffffffffffffffffffffffffffffffffff1603611c0f5760006040517f1e4fbdf7000000000000000000000000000000000000000000000000000000008152600401611c0691906123cf565b60405180910390fd5b611c1881611d53565b50565b60008060008403611c33576001600091509150611c67565b6000838502905083858281611c4b57611c4a613089565b5b0414611c5e576000809250925050611c67565b60018192509250505b9250929050565b60008060008303611c855760008091509150611c9d565b6001838581611c9757611c96613089565b5b04915091505b9250929050565b60008083831115611cbb5760008091509150611cc5565b6001838503915091505b9250929050565b611cd4611e17565b73ffffffffffffffffffffffffffffffffffffffff16611cf2611081565b73ffffffffffffffffffffffffffffffffffffffff1614611d5157611d15611e17565b6040517f118cdaa7000000000000000000000000000000000000000000000000000000008152600401611d4891906123cf565b60405180910390fd5b565b60008060009054906101000a900473ffffffffffffffffffffffffffffffffffffffff169050816000806101000a81548173ffffffffffffffffffffffffffffffffffffffff021916908373ffffffffffffffffffffffffffffffffffffffff1602179055508173ffffffffffffffffffffffffffffffffffffffff168173ffffffffffffffffffffffffffffffffffffffff167f8be0079c531659141344cd1fd0a4f28419497f9722a3daafe3b4186f6b6457e060405160405180910390a35050565b600033905090565b6040518060c0016040528060008152602001600060ff16815260200160008152602001600073ffffffffffffffffffffffffffffffffffffffff168152602001600073ffffffffffffffffffffffffffffffffffffffff1681526020016000151581525090565b6000604051905090565b600080fd5b600080fd5b600073ffffffffffffffffffffffffffffffffffffffff82169050919050565b6000611ec582611e9a565b9050919050565b611ed581611eba565b8114611ee057600080fd5b50565b600081359050611ef281611ecc565b92915050565b6000819050919050565b611f0b81611ef8565b8114611f1657600080fd5b50565b600081359050611f2881611f02565b92915050565b60008060408385031215611f4557611f44611e90565b5b6000611f5385828601611ee3565b9250506020611f6485828601611f19565b9150509250929050565b611f7781611ef8565b82525050565b600060ff82169050919050565b611f9381611f7d565b82525050565b611fa281611eba565b82525050565b60008115159050919050565b611fbd81611fa8565b82525050565b600060c082019050611fd86000830189611f6e565b611fe56020830188611f8a565b611ff26040830187611f6e565b611fff6060830186611f99565b61200c6080830185611f99565b61201960a0830184611fb4565b979650505050505050565b600081519050919050565b600082825260208201905092915050565b6000819050602082019050919050565b61205981611ef8565b82525050565b600061206b8383612050565b60208301905092915050565b6000602082019050919050565b600061208f82612024565b612099818561202f565b93506120a483612040565b8060005b838110156120d55781516120bc888261205f565b97506120c783612077565b9250506001810190506120a8565b5085935050505092915050565b600081519050919050565b600082825260208201905092915050565b6000819050602082019050919050565b61211781611f7d565b82525050565b61212681611eba565b82525050565b61213581611fa8565b82525050565b60c0820160008201516121516000850182612050565b506020820151612164602085018261210e565b5060408201516121776040850182612050565b50606082015161218a606085018261211d565b50608082015161219d608085018261211d565b5060a08201516121b060a085018261212c565b50505050565b60006121c2838361213b565b60c08301905092915050565b6000602082019050919050565b60006121e6826120e2565b6121f081856120ed565b93506121fb836120fe565b8060005b8381101561222c57815161221388826121b6565b975061221e836121ce565b9250506001810190506121ff565b5085935050505092915050565b600060408201905081810360008301526122538185612084565b9050818103602083015261226781846121db565b90509392505050565b60006020828403121561228657612285611e90565b5b600061229484828501611f19565b91505092915050565b6000819050919050565b60006122c26122bd6122b884611e9a565b61229d565b611e9a565b9050919050565b60006122d4826122a7565b9050919050565b60006122e6826122c9565b9050919050565b6122f6816122db565b82525050565b600060208201905061231160008301846122ed565b92915050565b6000806000606084860312156123305761232f611e90565b5b600061233e86828701611ee3565b935050602061234f86828701611f19565b925050604061236086828701611f19565b9150509250925092565b6000612375826122c9565b9050919050565b6123858161236a565b82525050565b60006020820190506123a0600083018461237c565b92915050565b60006040820190506123bb6000830185611f8a565b6123c86020830184611f99565b9392505050565b60006020820190506123e46000830184611f99565b92915050565b60008060006060848603121561240357612402611e90565b5b600061241186828701611f19565b935050602061242286828701611f19565b925050604061243386828701611f19565b9150509250925092565b600080fd5b600080fd5b6000601f19601f8301169050919050565b7f4e487b7100000000000000000000000000000000000000000000000000000000600052604160045260246000fd5b61249082612447565b810181811067ffffffffffffffff821117156124af576124ae612458565b5b80604052505050565b60006124c2611e86565b90506124ce8282612487565b919050565b600067ffffffffffffffff8211156124ee576124ed612458565b5b6124f782612447565b9050602081019050919050565b82818337600083830152505050565b6000612526612521846124d3565b6124b8565b90508281526020810184848401111561254257612541612442565b5b61254d848285612504565b509392505050565b600082601f83011261256a5761256961243d565b5b813561257a848260208601612513565b91505092915050565b61258c81611f7d565b811461259757600080fd5b50565b6000813590506125a981612583565b92915050565b6125b881611fa8565b81146125c357600080fd5b50565b6000813590506125d5816125af565b92915050565b600080600080600060a086880312156125f7576125f6611e90565b5b600061260588828901611f19565b955050602086013567ffffffffffffffff81111561262657612625611e95565b5b61263288828901612555565b94505060406126438882890161259a565b935050606061265488828901611f19565b9250506080612665888289016125c6565b9150509295509295909350565b60006020828403121561268857612687611e90565b5b600061269684828501611ee3565b91505092915050565b7f4e487b7100000000000000000000000000000000000000000000000000000000600052601160045260246000fd5b60006126d982611ef8565b91507fffffffffffffffffffffffffffffffffffffffffffffffffffffffffffffffff820361270b5761270a61269f565b5b600182019050919050565b7f4e487b7100000000000000000000000000000000000000000000000000000000600052603260045260246000fd5b600082825260208201905092915050565b7f596f7520617265206e6f74207468652073656c6c657200000000000000000000600082015250565b600061278c601683612745565b915061279782612756565b602082019050919050565b600060208201905081810360008301526127bb8161277f565b9050919050565b7f4e4654206973206e6f74206c6973746564000000000000000000000000000000600082015250565b60006127f8601183612745565b9150612803826127c2565b602082019050919050565b60006020820190508181036000830152612827816127eb565b9050919050565b60006040820190506128436000830185611f6e565b6128506020830184611f99565b9392505050565b7f4e4654206973206e6f74206c697374656420666f722073616c65000000000000600082015250565b600061288d601a83612745565b915061289882612857565b602082019050919050565b600060208201905081810360008301526128bc81612880565b9050919050565b60006040820190506128d86000830185611f99565b6128e56020830184611f6e565b9392505050565b6000815190506128fb81611f02565b92915050565b60006020828403121561291757612916611e90565b5b6000612925848285016128ec565b91505092915050565b7f53656c6c657220646f6573206e6f74206861766520656e6f75676820746f6b6560008201527f6e73000000000000000000000000000000000000000000000000000000000000602082015250565b600061298a602283612745565b91506129958261292e565b604082019050919050565b600060208201905081810360008301526129b98161297d565b9050919050565b7f4d756c7469706c69636174696f6e206f766572666c6f77000000000000000000600082015250565b60006129f6601783612745565b9150612a01826129c0565b602082019050919050565b60006020820190508181036000830152612a25816129e9565b9050919050565b7f496e73756666696369656e7420746f6b656e2062616c616e6365000000000000600082015250565b6000612a62601a83612745565b9150612a6d82612a2c565b602082019050919050565b60006020820190508181036000830152612a9181612a55565b9050919050565b7f4469766973696f6e206f766572666c6f77000000000000000000000000000000600082015250565b6000612ace601183612745565b9150612ad982612a98565b602082019050919050565b60006020820190508181036000830152612afd81612ac1565b9050919050565b7f5375627472616374696f6e206f766572666c6f77000000000000000000000000600082015250565b6000612b3a601483612745565b9150612b4582612b04565b602082019050919050565b60006020820190508181036000830152612b6981612b2d565b9050919050565b6000606082019050612b856000830186611f99565b612b926020830185611f99565b612b9f6040830184611f6e565b949350505050565b600081519050612bb6816125af565b92915050565b600060208284031215612bd257612bd1611e90565b5b6000612be084828501612ba7565b91505092915050565b7f526f79616c7479207472616e73666572206661696c6564000000000000000000600082015250565b6000612c1f601783612745565b9150612c2a82612be9565b602082019050919050565b60006020820190508181036000830152612c4e81612c12565b9050919050565b7f5061796d656e74207472616e73666572206661696c6564000000000000000000600082015250565b6000612c8b601783612745565b9150612c9682612c55565b602082019050919050565b60006020820190508181036000830152612cba81612c7e565b9050919050565b600082825260208201905092915050565b50565b6000612ce2600083612cc1565b9150612ced82612cd2565b600082019050919050565b600060a082019050612d0d6000830187611f99565b612d1a6020830186611f99565b612d276040830185611f6e565b612d346060830184611f6e565b8181036080830152612d4581612cd5565b905095945050505050565b6000612d5b82611ef8565b9150612d6683611ef8565b9250828203905081811115612d7e57612d7d61269f565b5b92915050565b6000608082019050612d996000830187611f6e565b612da66020830186611f99565b612db36040830185611f99565b612dc06060830184611f6e565b95945050505050565b7f596f7520646f6e2774206f776e2074686973204e465400000000000000000000600082015250565b6000612dff601683612745565b9150612e0a82612dc9565b602082019050919050565b60006020820190508181036000830152612e2e81612df2565b9050919050565b7f596f7520646f6e277420686176652074686973206d756368204e465473000000600082015250565b6000612e6b601d83612745565b9150612e7682612e35565b602082019050919050565b60006020820190508181036000830152612e9a81612e5e565b9050919050565b7f4e465420697320616c7265616479206c69737465640000000000000000000000600082015250565b6000612ed7601583612745565b9150612ee282612ea1565b602082019050919050565b60006020820190508181036000830152612f0681612eca565b9050919050565b6000608082019050612f226000830187611f6e565b612f2f6020830186611f99565b612f3c6040830185611f6e565b612f496060830184611f6e565b95945050505050565b600081519050919050565b60005b83811015612f7b578082015181840152602081019050612f60565b60008484015250505050565b6000612f9282612f52565b612f9c8185612745565b9350612fac818560208601612f5d565b612fb581612447565b840191505092915050565b6000608082019050612fd56000830187611f99565b612fe26020830186611f6e565b612fef6040830185611f6e565b81810360608301526130018184612f87565b905095945050505050565b600061302761302261301d84611f7d565b61229d565b611ef8565b9050919050565b6130378161300c565b82525050565b60006080820190506130526000830187611f6e565b61305f6020830186611f99565b81810360408301526130718185612f87565b9050613080606083018461302e565b95945050505050565b7f4e487b7100000000000000000000000000000000000000000000000000000000600052601260045260246000fdfea2646970667358221220bb9d8a48202676e3db29f41c1eadbdb4016f61f9ff52d0add60179939f664c4f64736f6c634300081c0033",
  "linkReferences": {},
  "deployedLinkReferences": {}
}